{
  "_format": "hh-sol-artifact-1",
  "contractName": "GameToken",
  "sourceName": "contracts/GameToken.sol",
  "abi": [
    {
      "inputs": [],
      "stateMutability": "nonpayable",
      "type": "constructor"
    },
    {
      "anonymous": false,
      "inputs": [
        {
          "indexed": true,
          "internalType": "address",
          "name": "owner",
          "type": "address"
        },
        {
          "indexed": true,
          "internalType": "address",
          "name": "spender",
          "type": "address"
        },
        {
          "indexed": false,
          "internalType": "uint256",
          "name": "value",
          "type": "uint256"
        }
      ],
      "name": "Approval",
      "type": "event"
    },
    {
      "anonymous": false,
      "inputs": [
        {
          "indexed": true,
          "internalType": "address",
          "name": "previousOwner",
          "type": "address"
        },
        {
          "indexed": true,
          "internalType": "address",
          "name": "newOwner",
          "type": "address"
        }
      ],
      "name": "OwnershipTransferred",
      "type": "event"
    },
    {
      "anonymous": false,
      "inputs": [
        {
          "indexed": true,
          "internalType": "address",
          "name": "from",
          "type": "address"
        },
        {
          "indexed": true,
          "internalType": "address",
          "name": "to",
          "type": "address"
        },
        {
          "indexed": false,
          "internalType": "uint256",
          "name": "value",
          "type": "uint256"
        }
      ],
      "name": "Transfer",
      "type": "event"
    },
    {
      "inputs": [
        {
          "internalType": "address",
          "name": "owner",
          "type": "address"
        },
        {
          "internalType": "address",
          "name": "spender",
          "type": "address"
        }
      ],
      "name": "allowance",
      "outputs": [
        {
          "internalType": "uint256",
          "name": "",
          "type": "uint256"
        }
      ],
      "stateMutability": "view",
      "type": "function"
    },
    {
      "inputs": [
        {
          "internalType": "address",
          "name": "spender",
          "type": "address"
        },
        {
          "internalType": "uint256",
          "name": "amount",
          "type": "uint256"
        }
      ],
      "name": "approve",
      "outputs": [
        {
          "internalType": "bool",
          "name": "",
          "type": "bool"
        }
      ],
      "stateMutability": "nonpayable",
      "type": "function"
    },
    {
      "inputs": [
        {
          "internalType": "address",
          "name": "account",
          "type": "address"
        }
      ],
      "name": "balanceOf",
      "outputs": [
        {
          "internalType": "uint256",
          "name": "",
          "type": "uint256"
        }
      ],
      "stateMutability": "view",
      "type": "function"
    },
    {
      "inputs": [],
      "name": "decimals",
      "outputs": [
        {
          "internalType": "uint8",
          "name": "",
          "type": "uint8"
        }
      ],
      "stateMutability": "view",
      "type": "function"
    },
    {
      "inputs": [
        {
          "internalType": "address",
          "name": "spender",
          "type": "address"
        },
        {
          "internalType": "uint256",
          "name": "subtractedValue",
          "type": "uint256"
        }
      ],
      "name": "decreaseAllowance",
      "outputs": [
        {
          "internalType": "bool",
          "name": "",
          "type": "bool"
        }
      ],
      "stateMutability": "nonpayable",
      "type": "function"
    },
    {
      "inputs": [
        {
          "internalType": "address",
          "name": "spender",
          "type": "address"
        },
        {
          "internalType": "uint256",
          "name": "addedValue",
          "type": "uint256"
        }
      ],
      "name": "increaseAllowance",
      "outputs": [
        {
          "internalType": "bool",
          "name": "",
          "type": "bool"
        }
      ],
      "stateMutability": "nonpayable",
      "type": "function"
    },
    {
      "inputs": [],
      "name": "maxSupply",
      "outputs": [
        {
          "internalType": "uint256",
          "name": "",
          "type": "uint256"
        }
      ],
      "stateMutability": "view",
      "type": "function"
    },
    {
      "inputs": [],
      "name": "mint",
      "outputs": [],
      "stateMutability": "nonpayable",
      "type": "function"
    },
    {
      "inputs": [],
      "name": "name",
      "outputs": [
        {
          "internalType": "string",
          "name": "",
          "type": "string"
        }
      ],
      "stateMutability": "view",
      "type": "function"
    },
    {
      "inputs": [],
      "name": "owner",
      "outputs": [
        {
          "internalType": "address",
          "name": "",
          "type": "address"
        }
      ],
      "stateMutability": "view",
      "type": "function"
    },
    {
      "inputs": [],
      "name": "renounceOwnership",
      "outputs": [],
      "stateMutability": "nonpayable",
      "type": "function"
    },
    {
      "inputs": [],
      "name": "symbol",
      "outputs": [
        {
          "internalType": "string",
          "name": "",
          "type": "string"
        }
      ],
      "stateMutability": "view",
      "type": "function"
    },
    {
      "inputs": [],
      "name": "totalSupply",
      "outputs": [
        {
          "internalType": "uint256",
          "name": "",
          "type": "uint256"
        }
      ],
      "stateMutability": "view",
      "type": "function"
    },
    {
      "inputs": [
        {
          "internalType": "address",
          "name": "to",
          "type": "address"
        },
        {
          "internalType": "uint256",
          "name": "amount",
          "type": "uint256"
        }
      ],
      "name": "transfer",
      "outputs": [
        {
          "internalType": "bool",
          "name": "",
          "type": "bool"
        }
      ],
      "stateMutability": "nonpayable",
      "type": "function"
    },
    {
      "inputs": [
        {
          "internalType": "address",
          "name": "from",
          "type": "address"
        },
        {
          "internalType": "address",
          "name": "to",
          "type": "address"
        },
        {
          "internalType": "uint256",
          "name": "amount",
          "type": "uint256"
        }
      ],
      "name": "transferFrom",
      "outputs": [
        {
          "internalType": "bool",
          "name": "",
          "type": "bool"
        }
      ],
      "stateMutability": "nonpayable",
      "type": "function"
    },
    {
      "inputs": [
        {
          "internalType": "address",
          "name": "newOwner",
          "type": "address"
        }
      ],
      "name": "transferOwnership",
      "outputs": [],
      "stateMutability": "nonpayable",
      "type": "function"
    },
    {
      "inputs": [],
      "name": "unit",
      "outputs": [
        {
          "internalType": "uint256",
          "name": "",
          "type": "uint256"
        }
      ],
      "stateMutability": "view",
      "type": "function"
    }
  ],
  "bytecode": "0x6080604052620000146200018160201b60201c565b60ff16600a620000259190620006bc565b620f4240620000359190620007f9565b600755620000486200018160201b60201c565b60ff16600a620000599190620006bc565b6008553480156200006957600080fd5b506040518060400160405280600481526020017f436f6f6c000000000000000000000000000000000000000000000000000000008152506040518060400160405280600481526020017f434f4f4c00000000000000000000000000000000000000000000000000000000815250620000f6620000ea6200018a60201b60201c565b6200019260201b60201c565b81600490805190602001906200010e92919062000483565b5080600590805190602001906200012792919062000483565b50505033600660006101000a81548173ffffffffffffffffffffffffffffffffffffffff021916908373ffffffffffffffffffffffffffffffffffffffff1602179055506200017b6200025660201b60201c565b6200097d565b60006012905090565b600033905090565b60008060009054906101000a900473ffffffffffffffffffffffffffffffffffffffff169050816000806101000a81548173ffffffffffffffffffffffffffffffffffffffff021916908373ffffffffffffffffffffffffffffffffffffffff1602179055508173ffffffffffffffffffffffffffffffffffffffff168173ffffffffffffffffffffffffffffffffffffffff167f8be0079c531659141344cd1fd0a4f28419497f9722a3daafe3b4186f6b6457e060405160405180910390a35050565b600660009054906101000a900473ffffffffffffffffffffffffffffffffffffffff1673ffffffffffffffffffffffffffffffffffffffff163373ffffffffffffffffffffffffffffffffffffffff1614620002e9576040517f08c379a0000000000000000000000000000000000000000000000000000000008152600401620002e09062000592565b60405180910390fd5b620002fd33600754620002ff60201b60201c565b565b600073ffffffffffffffffffffffffffffffffffffffff168273ffffffffffffffffffffffffffffffffffffffff16141562000372576040517f08c379a00000000000000000000000000000000000000000000000000000000081526004016200036990620005b4565b60405180910390fd5b62000386600083836200047960201b60201c565b80600360008282546200039a919062000604565b9250508190555080600160008473ffffffffffffffffffffffffffffffffffffffff1673ffffffffffffffffffffffffffffffffffffffff1681526020019081526020016000206000828254620003f2919062000604565b925050819055508173ffffffffffffffffffffffffffffffffffffffff16600073ffffffffffffffffffffffffffffffffffffffff167fddf252ad1be2c89b69c2b068fc378daa952ba7f163c4a11628f55a4df523b3ef83604051620004599190620005d6565b60405180910390a362000475600083836200047e60201b60201c565b5050565b505050565b505050565b828054620004919062000864565b90600052602060002090601f016020900481019282620004b5576000855562000501565b82601f10620004d057805160ff191683800117855562000501565b8280016001018555821562000501579182015b8281111562000500578251825591602001919060010190620004e3565b5b50905062000510919062000514565b5090565b5b808211156200052f57600081600090555060010162000515565b5090565b600062000542602683620005f3565b91506200054f8262000905565b604082019050919050565b600062000569601f83620005f3565b9150620005768262000954565b602082019050919050565b6200058c816200085a565b82525050565b60006020820190508181036000830152620005ad8162000533565b9050919050565b60006020820190508181036000830152620005cf816200055a565b9050919050565b6000602082019050620005ed600083018462000581565b92915050565b600082825260208201905092915050565b600062000611826200085a565b91506200061e836200085a565b9250827fffffffffffffffffffffffffffffffffffffffffffffffffffffffffffffffff038211156200065657620006556200089a565b5b828201905092915050565b6000808291508390505b6001851115620006b3578086048111156200068b576200068a6200089a565b5b60018516156200069b5780820291505b8081029050620006ab85620008f8565b94506200066b565b94509492505050565b6000620006c9826200085a565b9150620006d6836200085a565b9250620007057fffffffffffffffffffffffffffffffffffffffffffffffffffffffffffffffff84846200070d565b905092915050565b6000826200071f5760019050620007f2565b816200072f5760009050620007f2565b8160018114620007485760028114620007535762000789565b6001915050620007f2565b60ff8411156200076857620007676200089a565b5b8360020a9150848211156200078257620007816200089a565b5b50620007f2565b5060208310610133831016604e8410600b8410161715620007c35782820a905083811115620007bd57620007bc6200089a565b5b620007f2565b620007d2848484600162000661565b92509050818404811115620007ec57620007eb6200089a565b5b81810290505b9392505050565b600062000806826200085a565b915062000813836200085a565b9250817fffffffffffffffffffffffffffffffffffffffffffffffffffffffffffffffff04831182151516156200084f576200084e6200089a565b5b828202905092915050565b6000819050919050565b600060028204905060018216806200087d57607f821691505b60208210811415620008945762000893620008c9565b5b50919050565b7f4e487b7100000000000000000000000000000000000000000000000000000000600052601160045260246000fd5b7f4e487b7100000000000000000000000000000000000000000000000000000000600052602260045260246000fd5b60008160011c9050919050565b7f47616d65546f6b656e3a204f6e6c792061646d696e2063616e206d696e74207460008201527f6f6b656e732e0000000000000000000000000000000000000000000000000000602082015250565b7f45524332303a206d696e7420746f20746865207a65726f206164647265737300600082015250565b6119e9806200098d6000396000f3fe608060405234801561001057600080fd5b506004361061010b5760003560e01c8063715018a6116100a2578063a457c2d711610071578063a457c2d714610298578063a9059cbb146102c8578063d5abeb01146102f8578063dd62ed3e14610316578063f2fde38b146103465761010b565b8063715018a6146102345780638da5cb5b1461023e578063907af6c01461025c57806395d89b411461027a5761010b565b806323b872dd116100de57806323b872dd14610186578063313ce567146101b657806339509351146101d457806370a08231146102045761010b565b806306fdde0314610110578063095ea7b31461012e5780631249c58b1461015e57806318160ddd14610168575b600080fd5b610118610362565b604051610125919061133f565b60405180910390f35b610148600480360381019061014391906110d7565b6103f4565b6040516101559190611324565b60405180910390f35b610166610417565b005b6101706104b5565b60405161017d91906114c1565b60405180910390f35b6101a0600480360381019061019b9190611088565b6104bf565b6040516101ad9190611324565b60405180910390f35b6101be6104ee565b6040516101cb91906114dc565b60405180910390f35b6101ee60048036038101906101e991906110d7565b6104f7565b6040516101fb9190611324565b60405180910390f35b61021e60048036038101906102199190611023565b61052e565b60405161022b91906114c1565b60405180910390f35b61023c610577565b005b6102466105ff565b6040516102539190611309565b60405180910390f35b610264610628565b60405161027191906114c1565b60405180910390f35b610282610632565b60405161028f919061133f565b60405180910390f35b6102b260048036038101906102ad91906110d7565b6106c4565b6040516102bf9190611324565b60405180910390f35b6102e260048036038101906102dd91906110d7565b61073b565b6040516102ef9190611324565b60405180910390f35b61030061075e565b60405161030d91906114c1565b60405180910390f35b610330600480360381019061032b919061104c565b610768565b60405161033d91906114c1565b60405180910390f35b610360600480360381019061035b9190611023565b6107ef565b005b606060048054610371906115f1565b80601f016020809104026020016040519081016040528092919081815260200182805461039d906115f1565b80156103ea5780601f106103bf576101008083540402835291602001916103ea565b820191906000526020600020905b8154815290600101906020018083116103cd57829003601f168201915b5050505050905090565b6000806103ff6108e7565b905061040c8185856108ef565b600191505092915050565b600660009054906101000a900473ffffffffffffffffffffffffffffffffffffffff1673ffffffffffffffffffffffffffffffffffffffff163373ffffffffffffffffffffffffffffffffffffffff16146104a7576040517f08c379a000000000000000000000000000000000000000000000000000000000815260040161049e90611401565b60405180910390fd5b6104b333600754610aba565b565b6000600354905090565b6000806104ca6108e7565b90506104d7858285610c1b565b6104e2858585610ca7565b60019150509392505050565b60006012905090565b6000806105026108e7565b90506105238185856105148589610768565b61051e9190611513565b6108ef565b600191505092915050565b6000600160008373ffffffffffffffffffffffffffffffffffffffff1673ffffffffffffffffffffffffffffffffffffffff168152602001908152602001600020549050919050565b61057f6108e7565b73ffffffffffffffffffffffffffffffffffffffff1661059d6105ff565b73ffffffffffffffffffffffffffffffffffffffff16146105f3576040517f08c379a00000000000000000000000000000000000000000000000000000000081526004016105ea90611421565b60405180910390fd5b6105fd6000610f2b565b565b60008060009054906101000a900473ffffffffffffffffffffffffffffffffffffffff16905090565b6000600854905090565b606060058054610641906115f1565b80601f016020809104026020016040519081016040528092919081815260200182805461066d906115f1565b80156106ba5780601f1061068f576101008083540402835291602001916106ba565b820191906000526020600020905b81548152906001019060200180831161069d57829003601f168201915b5050505050905090565b6000806106cf6108e7565b905060006106dd8286610768565b905083811015610722576040517f08c379a000000000000000000000000000000000000000000000000000000000815260040161071990611481565b60405180910390fd5b61072f82868684036108ef565b60019250505092915050565b6000806107466108e7565b9050610753818585610ca7565b600191505092915050565b6000600754905090565b6000600260008473ffffffffffffffffffffffffffffffffffffffff1673ffffffffffffffffffffffffffffffffffffffff16815260200190815260200160002060008373ffffffffffffffffffffffffffffffffffffffff1673ffffffffffffffffffffffffffffffffffffffff16815260200190815260200160002054905092915050565b6107f76108e7565b73ffffffffffffffffffffffffffffffffffffffff166108156105ff565b73ffffffffffffffffffffffffffffffffffffffff161461086b576040517f08c379a000000000000000000000000000000000000000000000000000000000815260040161086290611421565b60405180910390fd5b600073ffffffffffffffffffffffffffffffffffffffff168173ffffffffffffffffffffffffffffffffffffffff1614156108db576040517f08c379a00000000000000000000000000000000000000000000000000000000081526004016108d290611381565b60405180910390fd5b6108e481610f2b565b50565b600033905090565b600073ffffffffffffffffffffffffffffffffffffffff168373ffffffffffffffffffffffffffffffffffffffff16141561095f576040517f08c379a000000000000000000000000000000000000000000000000000000000815260040161095690611461565b60405180910390fd5b600073ffffffffffffffffffffffffffffffffffffffff168273ffffffffffffffffffffffffffffffffffffffff1614156109cf576040517f08c379a00000000000000000000000000000000000000000000000000000000081526004016109c6906113a1565b60405180910390fd5b80600260008573ffffffffffffffffffffffffffffffffffffffff1673ffffffffffffffffffffffffffffffffffffffff16815260200190815260200160002060008473ffffffffffffffffffffffffffffffffffffffff1673ffffffffffffffffffffffffffffffffffffffff168152602001908152602001600020819055508173ffffffffffffffffffffffffffffffffffffffff168373ffffffffffffffffffffffffffffffffffffffff167f8c5be1e5ebec7d5bd14f71427d1e84f3dd0314c0f7b2291e5b200ac8c7c3b92583604051610aad91906114c1565b60405180910390a3505050565b600073ffffffffffffffffffffffffffffffffffffffff168273ffffffffffffffffffffffffffffffffffffffff161415610b2a576040517f08c379a0000000000000000000000000000000000000000000000000000000008152600401610b21906114a1565b60405180910390fd5b610b3660008383610fef565b8060036000828254610b489190611513565b9250508190555080600160008473ffffffffffffffffffffffffffffffffffffffff1673ffffffffffffffffffffffffffffffffffffffff1681526020019081526020016000206000828254610b9e9190611513565b925050819055508173ffffffffffffffffffffffffffffffffffffffff16600073ffffffffffffffffffffffffffffffffffffffff167fddf252ad1be2c89b69c2b068fc378daa952ba7f163c4a11628f55a4df523b3ef83604051610c0391906114c1565b60405180910390a3610c1760008383610ff4565b5050565b6000610c278484610768565b90507fffffffffffffffffffffffffffffffffffffffffffffffffffffffffffffffff8114610ca15781811015610c93576040517f08c379a0000000000000000000000000000000000000000000000000000000008152600401610c8a906113c1565b60405180910390fd5b610ca084848484036108ef565b5b50505050565b600073ffffffffffffffffffffffffffffffffffffffff168373ffffffffffffffffffffffffffffffffffffffff161415610d17576040517f08c379a0000000000000000000000000000000000000000000000000000000008152600401610d0e90611441565b60405180910390fd5b600073ffffffffffffffffffffffffffffffffffffffff168273ffffffffffffffffffffffffffffffffffffffff161415610d87576040517f08c379a0000000000000000000000000000000000000000000000000000000008152600401610d7e90611361565b60405180910390fd5b610d92838383610fef565b6000600160008573ffffffffffffffffffffffffffffffffffffffff1673ffffffffffffffffffffffffffffffffffffffff16815260200190815260200160002054905081811015610e19576040517f08c379a0000000000000000000000000000000000000000000000000000000008152600401610e10906113e1565b60405180910390fd5b818103600160008673ffffffffffffffffffffffffffffffffffffffff1673ffffffffffffffffffffffffffffffffffffffff1681526020019081526020016000208190555081600160008573ffffffffffffffffffffffffffffffffffffffff1673ffffffffffffffffffffffffffffffffffffffff1681526020019081526020016000206000828254610eae9190611513565b925050819055508273ffffffffffffffffffffffffffffffffffffffff168473ffffffffffffffffffffffffffffffffffffffff167fddf252ad1be2c89b69c2b068fc378daa952ba7f163c4a11628f55a4df523b3ef84604051610f1291906114c1565b60405180910390a3610f25848484610ff4565b50505050565b60008060009054906101000a900473ffffffffffffffffffffffffffffffffffffffff169050816000806101000a81548173ffffffffffffffffffffffffffffffffffffffff021916908373ffffffffffffffffffffffffffffffffffffffff1602179055508173ffffffffffffffffffffffffffffffffffffffff168173ffffffffffffffffffffffffffffffffffffffff167f8be0079c531659141344cd1fd0a4f28419497f9722a3daafe3b4186f6b6457e060405160405180910390a35050565b505050565b505050565b60008135905061100881611985565b92915050565b60008135905061101d8161199c565b92915050565b60006020828403121561103557600080fd5b600061104384828501610ff9565b91505092915050565b6000806040838503121561105f57600080fd5b600061106d85828601610ff9565b925050602061107e85828601610ff9565b9150509250929050565b60008060006060848603121561109d57600080fd5b60006110ab86828701610ff9565b93505060206110bc86828701610ff9565b92505060406110cd8682870161100e565b9150509250925092565b600080604083850312156110ea57600080fd5b60006110f885828601610ff9565b92505060206111098582860161100e565b9150509250929050565b61111c81611569565b82525050565b61112b8161157b565b82525050565b600061113c826114f7565b6111468185611502565b93506111568185602086016115be565b61115f81611681565b840191505092915050565b6000611177602383611502565b915061118282611692565b604082019050919050565b600061119a602683611502565b91506111a5826116e1565b604082019050919050565b60006111bd602283611502565b91506111c882611730565b604082019050919050565b60006111e0601d83611502565b91506111eb8261177f565b602082019050919050565b6000611203602683611502565b915061120e826117a8565b604082019050919050565b6000611226602683611502565b9150611231826117f7565b604082019050919050565b6000611249602083611502565b915061125482611846565b602082019050919050565b600061126c602583611502565b91506112778261186f565b604082019050919050565b600061128f602483611502565b915061129a826118be565b604082019050919050565b60006112b2602583611502565b91506112bd8261190d565b604082019050919050565b60006112d5601f83611502565b91506112e08261195c565b602082019050919050565b6112f4816115a7565b82525050565b611303816115b1565b82525050565b600060208201905061131e6000830184611113565b92915050565b60006020820190506113396000830184611122565b92915050565b600060208201905081810360008301526113598184611131565b905092915050565b6000602082019050818103600083015261137a8161116a565b9050919050565b6000602082019050818103600083015261139a8161118d565b9050919050565b600060208201905081810360008301526113ba816111b0565b9050919050565b600060208201905081810360008301526113da816111d3565b9050919050565b600060208201905081810360008301526113fa816111f6565b9050919050565b6000602082019050818103600083015261141a81611219565b9050919050565b6000602082019050818103600083015261143a8161123c565b9050919050565b6000602082019050818103600083015261145a8161125f565b9050919050565b6000602082019050818103600083015261147a81611282565b9050919050565b6000602082019050818103600083015261149a816112a5565b9050919050565b600060208201905081810360008301526114ba816112c8565b9050919050565b60006020820190506114d660008301846112eb565b92915050565b60006020820190506114f160008301846112fa565b92915050565b600081519050919050565b600082825260208201905092915050565b600061151e826115a7565b9150611529836115a7565b9250827fffffffffffffffffffffffffffffffffffffffffffffffffffffffffffffffff0382111561155e5761155d611623565b5b828201905092915050565b600061157482611587565b9050919050565b60008115159050919050565b600073ffffffffffffffffffffffffffffffffffffffff82169050919050565b6000819050919050565b600060ff82169050919050565b60005b838110156115dc5780820151818401526020810190506115c1565b838111156115eb576000848401525b50505050565b6000600282049050600182168061160957607f821691505b6020821081141561161d5761161c611652565b5b50919050565b7f4e487b7100000000000000000000000000000000000000000000000000000000600052601160045260246000fd5b7f4e487b7100000000000000000000000000000000000000000000000000000000600052602260045260246000fd5b6000601f19601f8301169050919050565b7f45524332303a207472616e7366657220746f20746865207a65726f206164647260008201527f6573730000000000000000000000000000000000000000000000000000000000602082015250565b7f4f776e61626c653a206e6577206f776e657220697320746865207a65726f206160008201527f6464726573730000000000000000000000000000000000000000000000000000602082015250565b7f45524332303a20617070726f766520746f20746865207a65726f20616464726560008201527f7373000000000000000000000000000000000000000000000000000000000000602082015250565b7f45524332303a20696e73756666696369656e7420616c6c6f77616e6365000000600082015250565b7f45524332303a207472616e7366657220616d6f756e742065786365656473206260008201527f616c616e63650000000000000000000000000000000000000000000000000000602082015250565b7f47616d65546f6b656e3a204f6e6c792061646d696e2063616e206d696e74207460008201527f6f6b656e732e0000000000000000000000000000000000000000000000000000602082015250565b7f4f776e61626c653a2063616c6c6572206973206e6f7420746865206f776e6572600082015250565b7f45524332303a207472616e736665722066726f6d20746865207a65726f20616460008201527f6472657373000000000000000000000000000000000000000000000000000000602082015250565b7f45524332303a20617070726f76652066726f6d20746865207a65726f2061646460008201527f7265737300000000000000000000000000000000000000000000000000000000602082015250565b7f45524332303a2064656372656173656420616c6c6f77616e63652062656c6f7760008201527f207a65726f000000000000000000000000000000000000000000000000000000602082015250565b7f45524332303a206d696e7420746f20746865207a65726f206164647265737300600082015250565b61198e81611569565b811461199957600080fd5b50565b6119a5816115a7565b81146119b057600080fd5b5056fea26469706673582212201043c42586ffb4f1855491a9bc1ea84ddad2ce0a8cd17d60b09cb257f72fa77764736f6c63430008040033",
  "linkReferences": {},
  "deployedLinkReferences": {}
}