{
  "_format": "hh-sol-artifact-1",
  "contractName": "GameNFTToken",
  "sourceName": "contracts/GameNFTToken.sol",
  "abi": [
    {
      "inputs": [],
      "stateMutability": "nonpayable",
      "type": "constructor"
    },
    {
      "anonymous": false,
      "inputs": [
        {
          "indexed": true,
          "internalType": "address",
          "name": "owner",
          "type": "address"
        },
        {
          "indexed": true,
          "internalType": "address",
          "name": "approved",
          "type": "address"
        },
        {
          "indexed": true,
          "internalType": "uint256",
          "name": "tokenId",
          "type": "uint256"
        }
      ],
      "name": "Approval",
      "type": "event"
    },
    {
      "anonymous": false,
      "inputs": [
        {
          "indexed": true,
          "internalType": "address",
          "name": "owner",
          "type": "address"
        },
        {
          "indexed": true,
          "internalType": "address",
          "name": "operator",
          "type": "address"
        },
        {
          "indexed": false,
          "internalType": "bool",
          "name": "approved",
          "type": "bool"
        }
      ],
      "name": "ApprovalForAll",
      "type": "event"
    },
    {
      "anonymous": false,
      "inputs": [
        {
          "indexed": true,
          "internalType": "address",
          "name": "previousOwner",
          "type": "address"
        },
        {
          "indexed": true,
          "internalType": "address",
          "name": "newOwner",
          "type": "address"
        }
      ],
      "name": "OwnershipTransferred",
      "type": "event"
    },
    {
      "anonymous": false,
      "inputs": [
        {
          "indexed": true,
          "internalType": "address",
          "name": "from",
          "type": "address"
        },
        {
          "indexed": true,
          "internalType": "address",
          "name": "to",
          "type": "address"
        },
        {
          "indexed": true,
          "internalType": "uint256",
          "name": "tokenId",
          "type": "uint256"
        }
      ],
      "name": "Transfer",
      "type": "event"
    },
    {
      "inputs": [
        {
          "internalType": "address",
          "name": "to",
          "type": "address"
        },
        {
          "internalType": "uint256",
          "name": "tokenId",
          "type": "uint256"
        }
      ],
      "name": "approve",
      "outputs": [],
      "stateMutability": "nonpayable",
      "type": "function"
    },
    {
      "inputs": [
        {
          "internalType": "address",
          "name": "owner",
          "type": "address"
        }
      ],
      "name": "balanceOf",
      "outputs": [
        {
          "internalType": "uint256",
          "name": "",
          "type": "uint256"
        }
      ],
      "stateMutability": "view",
      "type": "function"
    },
    {
      "inputs": [],
      "name": "baseExtension",
      "outputs": [
        {
          "internalType": "string",
          "name": "",
          "type": "string"
        }
      ],
      "stateMutability": "view",
      "type": "function"
    },
    {
      "inputs": [],
      "name": "cost",
      "outputs": [
        {
          "internalType": "uint256",
          "name": "",
          "type": "uint256"
        }
      ],
      "stateMutability": "view",
      "type": "function"
    },
    {
      "inputs": [
        {
          "internalType": "uint256",
          "name": "tokenId",
          "type": "uint256"
        }
      ],
      "name": "getApproved",
      "outputs": [
        {
          "internalType": "address",
          "name": "",
          "type": "address"
        }
      ],
      "stateMutability": "view",
      "type": "function"
    },
    {
      "inputs": [],
      "name": "getTokenHolders",
      "outputs": [
        {
          "internalType": "address[]",
          "name": "",
          "type": "address[]"
        }
      ],
      "stateMutability": "view",
      "type": "function"
    },
    {
      "inputs": [
        {
          "internalType": "address",
          "name": "owner",
          "type": "address"
        },
        {
          "internalType": "address",
          "name": "operator",
          "type": "address"
        }
      ],
      "name": "isApprovedForAll",
      "outputs": [
        {
          "internalType": "bool",
          "name": "",
          "type": "bool"
        }
      ],
      "stateMutability": "view",
      "type": "function"
    },
    {
      "inputs": [],
      "name": "maxMintAmount",
      "outputs": [
        {
          "internalType": "uint256",
          "name": "",
          "type": "uint256"
        }
      ],
      "stateMutability": "view",
      "type": "function"
    },
    {
      "inputs": [],
      "name": "maxSupply",
      "outputs": [
        {
          "internalType": "uint256",
          "name": "",
          "type": "uint256"
        }
      ],
      "stateMutability": "view",
      "type": "function"
    },
    {
      "inputs": [
        {
          "internalType": "uint256",
          "name": "_mintAmount",
          "type": "uint256"
        }
      ],
      "name": "mint",
      "outputs": [],
      "stateMutability": "nonpayable",
      "type": "function"
    },
    {
      "inputs": [
        {
          "internalType": "address",
          "name": "playerAddress",
          "type": "address"
        }
      ],
      "name": "mintOne",
      "outputs": [],
      "stateMutability": "nonpayable",
      "type": "function"
    },
    {
      "inputs": [],
      "name": "name",
      "outputs": [
        {
          "internalType": "string",
          "name": "",
          "type": "string"
        }
      ],
      "stateMutability": "view",
      "type": "function"
    },
    {
      "inputs": [],
      "name": "notRevealedUri",
      "outputs": [
        {
          "internalType": "string",
          "name": "",
          "type": "string"
        }
      ],
      "stateMutability": "view",
      "type": "function"
    },
    {
      "inputs": [],
      "name": "owner",
      "outputs": [
        {
          "internalType": "address",
          "name": "",
          "type": "address"
        }
      ],
      "stateMutability": "view",
      "type": "function"
    },
    {
      "inputs": [
        {
          "internalType": "uint256",
          "name": "tokenId",
          "type": "uint256"
        }
      ],
      "name": "ownerOf",
      "outputs": [
        {
          "internalType": "address",
          "name": "",
          "type": "address"
        }
      ],
      "stateMutability": "view",
      "type": "function"
    },
    {
      "inputs": [
        {
          "internalType": "bool",
          "name": "_state",
          "type": "bool"
        }
      ],
      "name": "pause",
      "outputs": [],
      "stateMutability": "nonpayable",
      "type": "function"
    },
    {
      "inputs": [],
      "name": "paused",
      "outputs": [
        {
          "internalType": "bool",
          "name": "",
          "type": "bool"
        }
      ],
      "stateMutability": "view",
      "type": "function"
    },
    {
      "inputs": [],
      "name": "renounceOwnership",
      "outputs": [],
      "stateMutability": "nonpayable",
      "type": "function"
    },
    {
      "inputs": [],
      "name": "reveal",
      "outputs": [],
      "stateMutability": "nonpayable",
      "type": "function"
    },
    {
      "inputs": [],
      "name": "revealed",
      "outputs": [
        {
          "internalType": "bool",
          "name": "",
          "type": "bool"
        }
      ],
      "stateMutability": "view",
      "type": "function"
    },
    {
      "inputs": [
        {
          "internalType": "address",
          "name": "from",
          "type": "address"
        },
        {
          "internalType": "address",
          "name": "to",
          "type": "address"
        },
        {
          "internalType": "uint256",
          "name": "tokenId",
          "type": "uint256"
        }
      ],
      "name": "safeTransferFrom",
      "outputs": [],
      "stateMutability": "nonpayable",
      "type": "function"
    },
    {
      "inputs": [
        {
          "internalType": "address",
          "name": "from",
          "type": "address"
        },
        {
          "internalType": "address",
          "name": "to",
          "type": "address"
        },
        {
          "internalType": "uint256",
          "name": "tokenId",
          "type": "uint256"
        },
        {
          "internalType": "bytes",
          "name": "_data",
          "type": "bytes"
        }
      ],
      "name": "safeTransferFrom",
      "outputs": [],
      "stateMutability": "nonpayable",
      "type": "function"
    },
    {
      "inputs": [
        {
          "internalType": "address",
          "name": "operator",
          "type": "address"
        },
        {
          "internalType": "bool",
          "name": "approved",
          "type": "bool"
        }
      ],
      "name": "setApprovalForAll",
      "outputs": [],
      "stateMutability": "nonpayable",
      "type": "function"
    },
    {
      "inputs": [
        {
          "internalType": "string",
          "name": "_newBaseExtension",
          "type": "string"
        }
      ],
      "name": "setBaseExtension",
      "outputs": [],
      "stateMutability": "nonpayable",
      "type": "function"
    },
    {
      "inputs": [
        {
          "internalType": "string",
          "name": "_newBaseURI",
          "type": "string"
        }
      ],
      "name": "setBaseURI",
      "outputs": [],
      "stateMutability": "nonpayable",
      "type": "function"
    },
    {
      "inputs": [
        {
          "internalType": "uint256",
          "name": "_newCost",
          "type": "uint256"
        }
      ],
      "name": "setCost",
      "outputs": [],
      "stateMutability": "nonpayable",
      "type": "function"
    },
    {
      "inputs": [
        {
          "internalType": "string",
          "name": "_notRevealedURI",
          "type": "string"
        }
      ],
      "name": "setNotRevealedURI",
      "outputs": [],
      "stateMutability": "nonpayable",
      "type": "function"
    },
    {
      "inputs": [
        {
          "internalType": "address",
          "name": "_p2eGame",
          "type": "address"
        }
      ],
      "name": "setP2EGame",
      "outputs": [],
      "stateMutability": "nonpayable",
      "type": "function"
    },
    {
      "inputs": [
        {
          "internalType": "uint256",
          "name": "_newmaxMintAmount",
          "type": "uint256"
        }
      ],
      "name": "setmaxMintAmount",
      "outputs": [],
      "stateMutability": "nonpayable",
      "type": "function"
    },
    {
      "inputs": [
        {
          "internalType": "bytes4",
          "name": "interfaceId",
          "type": "bytes4"
        }
      ],
      "name": "supportsInterface",
      "outputs": [
        {
          "internalType": "bool",
          "name": "",
          "type": "bool"
        }
      ],
      "stateMutability": "view",
      "type": "function"
    },
    {
      "inputs": [],
      "name": "symbol",
      "outputs": [
        {
          "internalType": "string",
          "name": "",
          "type": "string"
        }
      ],
      "stateMutability": "view",
      "type": "function"
    },
    {
      "inputs": [
        {
          "internalType": "uint256",
          "name": "index",
          "type": "uint256"
        }
      ],
      "name": "tokenByIndex",
      "outputs": [
        {
          "internalType": "uint256",
          "name": "",
          "type": "uint256"
        }
      ],
      "stateMutability": "view",
      "type": "function"
    },
    {
      "inputs": [
        {
          "internalType": "uint256",
          "name": "",
          "type": "uint256"
        }
      ],
      "name": "tokenHolders",
      "outputs": [
        {
          "internalType": "address",
          "name": "",
          "type": "address"
        }
      ],
      "stateMutability": "view",
      "type": "function"
    },
    {
      "inputs": [
        {
          "internalType": "address",
          "name": "owner",
          "type": "address"
        },
        {
          "internalType": "uint256",
          "name": "index",
          "type": "uint256"
        }
      ],
      "name": "tokenOfOwnerByIndex",
      "outputs": [
        {
          "internalType": "uint256",
          "name": "",
          "type": "uint256"
        }
      ],
      "stateMutability": "view",
      "type": "function"
    },
    {
      "inputs": [
        {
          "internalType": "uint256",
          "name": "tokenId",
          "type": "uint256"
        }
      ],
      "name": "tokenURI",
      "outputs": [
        {
          "internalType": "string",
          "name": "",
          "type": "string"
        }
      ],
      "stateMutability": "view",
      "type": "function"
    },
    {
      "inputs": [],
      "name": "totalSupply",
      "outputs": [
        {
          "internalType": "uint256",
          "name": "",
          "type": "uint256"
        }
      ],
      "stateMutability": "view",
      "type": "function"
    },
    {
      "inputs": [
        {
          "internalType": "address",
          "name": "from",
          "type": "address"
        },
        {
          "internalType": "address",
          "name": "to",
          "type": "address"
        },
        {
          "internalType": "uint256",
          "name": "tokenId",
          "type": "uint256"
        }
      ],
      "name": "transferFrom",
      "outputs": [],
      "stateMutability": "nonpayable",
      "type": "function"
    },
    {
      "inputs": [
        {
          "internalType": "address",
          "name": "newOwner",
          "type": "address"
        }
      ],
      "name": "transferOwnership",
      "outputs": [],
      "stateMutability": "nonpayable",
      "type": "function"
    },
    {
      "inputs": [
        {
          "internalType": "address",
          "name": "_owner",
          "type": "address"
        }
      ],
      "name": "walletOfOwner",
      "outputs": [
        {
          "internalType": "uint256[]",
          "name": "",
          "type": "uint256[]"
        }
      ],
      "stateMutability": "view",
      "type": "function"
    },
    {
      "inputs": [],
      "name": "withdraw",
      "outputs": [],
      "stateMutability": "payable",
      "type": "function"
    }
  ],
  "bytecode": "0x60806040526040518060400160405280600581526020017f2e6a736f6e000000000000000000000000000000000000000000000000000000815250600e908051906020019062000051929190620004f5565b5066b1a2bc2ec50000600f5561271060105560146011556000601260006101000a81548160ff0219169083151502179055506000601260016101000a81548160ff021916908315150217905550600067ffffffffffffffff811115620000e0577f4e487b7100000000000000000000000000000000000000000000000000000000600052604160045260246000fd5b6040519080825280602002602001820160405280156200010f5781602001602082028036833780820191505090505b50601490805190602001906200012792919062000586565b503480156200013557600080fd5b506040518060400160405280600881526020017f436f6f6c4c696e6b0000000000000000000000000000000000000000000000008152506040518060400160405280600881526020017f434f4f4c4c494e4b0000000000000000000000000000000000000000000000008152508160009080519060200190620001ba929190620004f5565b508060019080519060200190620001d3929190620004f5565b505050620001f6620001ea620002c960201b60201c565b620002d160201b60201c565b33600b60006101000a81548173ffffffffffffffffffffffffffffffffffffffff021916908373ffffffffffffffffffffffffffffffffffffffff1602179055506200027d6040518060400160405280600781526020017f697066733a2f2f000000000000000000000000000000000000000000000000008152506200039760201b60201c565b620002c36040518060400160405280600781526020017f697066733a2f2f000000000000000000000000000000000000000000000000008152506200044660201b60201c565b62000742565b600033905090565b6000600a60009054906101000a900473ffffffffffffffffffffffffffffffffffffffff16905081600a60006101000a81548173ffffffffffffffffffffffffffffffffffffffff021916908373ffffffffffffffffffffffffffffffffffffffff1602179055508173ffffffffffffffffffffffffffffffffffffffff168173ffffffffffffffffffffffffffffffffffffffff167f8be0079c531659141344cd1fd0a4f28419497f9722a3daafe3b4186f6b6457e060405160405180910390a35050565b600b60009054906101000a900473ffffffffffffffffffffffffffffffffffffffff1673ffffffffffffffffffffffffffffffffffffffff163373ffffffffffffffffffffffffffffffffffffffff16146200042a576040517f08c379a000000000000000000000000000000000000000000000000000000000815260040162000421906200065b565b60405180910390fd5b80600d908051906020019062000442929190620004f5565b5050565b600b60009054906101000a900473ffffffffffffffffffffffffffffffffffffffff1673ffffffffffffffffffffffffffffffffffffffff163373ffffffffffffffffffffffffffffffffffffffff1614620004d9576040517f08c379a0000000000000000000000000000000000000000000000000000000008152600401620004d0906200065b565b60405180910390fd5b8060139080519060200190620004f1929190620004f5565b5050565b82805462000503906200068e565b90600052602060002090601f01602090048101928262000527576000855562000573565b82601f106200054257805160ff191683800117855562000573565b8280016001018555821562000573579182015b828111156200057257825182559160200191906001019062000555565b5b50905062000582919062000615565b5090565b82805482825590600052602060002090810192821562000602579160200282015b82811115620006015782518260006101000a81548173ffffffffffffffffffffffffffffffffffffffff021916908373ffffffffffffffffffffffffffffffffffffffff16021790555091602001919060010190620005a7565b5b50905062000611919062000615565b5090565b5b808211156200063057600081600090555060010162000616565b5090565b600062000643602f836200067d565b91506200065082620006f3565b604082019050919050565b60006020820190508181036000830152620006768162000634565b9050919050565b600082825260208201905092915050565b60006002820490506001821680620006a757607f821691505b60208210811415620006be57620006bd620006c4565b5b50919050565b7f4e487b7100000000000000000000000000000000000000000000000000000000600052602260045260246000fd5b7f47616d654e4654546f6b656e3a2041646d696e2063616e20706572666f726d2060008201527f74686973206f7065726174696f6e2e0000000000000000000000000000000000602082015250565b6153fa80620007526000396000f3fe60806040526004361061023b5760003560e01c806370a082311161012e578063a475b5dd116100ab578063da3ef23f1161006f578063da3ef23f14610864578063e985e9c51461088d578063f2c4ce1e146108ca578063f2fde38b146108f3578063fa695a971461091c5761023b565b8063a475b5dd14610791578063b88d4fde146107a8578063c6682862146107d1578063c87b56dd146107fc578063d5abeb01146108395761023b565b8063923108d9116100f2578063923108d9146106ae57806395d89b41146106eb578063a0712d6814610716578063a22cb4651461073f578063a3f55d49146107685761023b565b806370a08231146105db578063715018a6146106185780637f00c7a61461062f578063876b1566146106585780638da5cb5b146106835761023b565b80632f745c59116101bc5780634f6ccce7116101805780634f6ccce7146104e2578063518302271461051f57806355f804b31461054a5780635c975abb146105735780636352211e1461059e5761023b565b80632f745c591461040c5780633ccfd60b1461044957806342842e0e14610453578063438b63001461047c57806344a0d68a146104b95761023b565b8063095ea7b311610203578063095ea7b31461033957806313faede61461036257806318160ddd1461038d578063239c70ae146103b857806323b872dd146103e35761023b565b806301ffc9a71461024057806302329a291461027d57806306fdde03146102a6578063081812fc146102d1578063081c8c441461030e575b600080fd5b34801561024c57600080fd5b5061026760048036038101906102629190613c57565b610945565b604051610274919061440e565b60405180910390f35b34801561028957600080fd5b506102a4600480360381019061029f9190613c2e565b6109bf565b005b3480156102b257600080fd5b506102bb610a6c565b6040516102c89190614429565b60405180910390f35b3480156102dd57600080fd5b506102f860048036038101906102f39190613cea565b610afe565b6040516103059190614363565b60405180910390f35b34801561031a57600080fd5b50610323610b83565b6040516103309190614429565b60405180910390f35b34801561034557600080fd5b50610360600480360381019061035b9190613bf2565b610c11565b005b34801561036e57600080fd5b50610377610d29565b604051610384919061478b565b60405180910390f35b34801561039957600080fd5b506103a2610d2f565b6040516103af919061478b565b60405180910390f35b3480156103c457600080fd5b506103cd610d3c565b6040516103da919061478b565b60405180910390f35b3480156103ef57600080fd5b5061040a60048036038101906104059190613aec565b610d42565b005b34801561041857600080fd5b50610433600480360381019061042e9190613bf2565b610da2565b604051610440919061478b565b60405180910390f35b610451610e47565b005b34801561045f57600080fd5b5061047a60048036038101906104759190613aec565b610f57565b005b34801561048857600080fd5b506104a3600480360381019061049e9190613a87565b610f77565b6040516104b091906143ec565b60405180910390f35b3480156104c557600080fd5b506104e060048036038101906104db9190613cea565b611071565b005b3480156104ee57600080fd5b5061050960048036038101906105049190613cea565b61110b565b604051610516919061478b565b60405180910390f35b34801561052b57600080fd5b506105346111a2565b604051610541919061440e565b60405180910390f35b34801561055657600080fd5b50610571600480360381019061056c9190613ca9565b6111b5565b005b34801561057f57600080fd5b5061058861125f565b604051610595919061440e565b60405180910390f35b3480156105aa57600080fd5b506105c560048036038101906105c09190613cea565b611272565b6040516105d29190614363565b60405180910390f35b3480156105e757600080fd5b5061060260048036038101906105fd9190613a87565b611324565b60405161060f919061478b565b60405180910390f35b34801561062457600080fd5b5061062d6113dc565b005b34801561063b57600080fd5b5061065660048036038101906106519190613cea565b611464565b005b34801561066457600080fd5b5061066d6114fe565b60405161067a91906143ca565b60405180910390f35b34801561068f57600080fd5b5061069861158c565b6040516106a59190614363565b60405180910390f35b3480156106ba57600080fd5b506106d560048036038101906106d09190613cea565b6115b6565b6040516106e29190614363565b60405180910390f35b3480156106f757600080fd5b506107006115f5565b60405161070d9190614429565b60405180910390f35b34801561072257600080fd5b5061073d60048036038101906107389190613cea565b611687565b005b34801561074b57600080fd5b5061076660048036038101906107619190613bb6565b611886565b005b34801561077457600080fd5b5061078f600480360381019061078a9190613a87565b61189c565b005b34801561079d57600080fd5b506107a6611970565b005b3480156107b457600080fd5b506107cf60048036038101906107ca9190613b3b565b611a1d565b005b3480156107dd57600080fd5b506107e6611a7f565b6040516107f39190614429565b60405180910390f35b34801561080857600080fd5b50610823600480360381019061081e9190613cea565b611b0d565b6040516108309190614429565b60405180910390f35b34801561084557600080fd5b5061084e611c66565b60405161085b919061478b565b60405180910390f35b34801561087057600080fd5b5061088b60048036038101906108869190613ca9565b611c6c565b005b34801561089957600080fd5b506108b460048036038101906108af9190613ab0565b611d16565b6040516108c1919061440e565b60405180910390f35b3480156108d657600080fd5b506108f160048036038101906108ec9190613ca9565b611daa565b005b3480156108ff57600080fd5b5061091a60048036038101906109159190613a87565b611e54565b005b34801561092857600080fd5b50610943600480360381019061093e9190613a87565b611f4c565b005b60007f780e9d63000000000000000000000000000000000000000000000000000000007bffffffffffffffffffffffffffffffffffffffffffffffffffffffff1916827bffffffffffffffffffffffffffffffffffffffffffffffffffffffff191614806109b857506109b782612147565b5b9050919050565b600b60009054906101000a900473ffffffffffffffffffffffffffffffffffffffff1673ffffffffffffffffffffffffffffffffffffffff163373ffffffffffffffffffffffffffffffffffffffff1614610a4f576040517f08c379a0000000000000000000000000000000000000000000000000000000008152600401610a46906146ab565b60405180910390fd5b80601260006101000a81548160ff02191690831515021790555050565b606060008054610a7b90614a73565b80601f0160208091040260200160405190810160405280929190818152602001828054610aa790614a73565b8015610af45780601f10610ac957610100808354040283529160200191610af4565b820191906000526020600020905b815481529060010190602001808311610ad757829003601f168201915b5050505050905090565b6000610b0982612229565b610b48576040517f08c379a0000000000000000000000000000000000000000000000000000000008152600401610b3f9061464b565b60405180910390fd5b6004600083815260200190815260200160002060009054906101000a900473ffffffffffffffffffffffffffffffffffffffff169050919050565b60138054610b9090614a73565b80601f0160208091040260200160405190810160405280929190818152602001828054610bbc90614a73565b8015610c095780601f10610bde57610100808354040283529160200191610c09565b820191906000526020600020905b815481529060010190602001808311610bec57829003601f168201915b505050505081565b6000610c1c82611272565b90508073ffffffffffffffffffffffffffffffffffffffff168373ffffffffffffffffffffffffffffffffffffffff161415610c8d576040517f08c379a0000000000000000000000000000000000000000000000000000000008152600401610c849061470b565b60405180910390fd5b8073ffffffffffffffffffffffffffffffffffffffff16610cac612295565b73ffffffffffffffffffffffffffffffffffffffff161480610cdb5750610cda81610cd5612295565b611d16565b5b610d1a576040517f08c379a0000000000000000000000000000000000000000000000000000000008152600401610d11906145cb565b60405180910390fd5b610d24838361229d565b505050565b600f5481565b6000600880549050905090565b60115481565b610d53610d4d612295565b82612356565b610d92576040517f08c379a0000000000000000000000000000000000000000000000000000000008152600401610d899061472b565b60405180910390fd5b610d9d838383612434565b505050565b6000610dad83611324565b8210610dee576040517f08c379a0000000000000000000000000000000000000000000000000000000008152600401610de59061446b565b60405180910390fd5b600660008473ffffffffffffffffffffffffffffffffffffffff1673ffffffffffffffffffffffffffffffffffffffff168152602001908152602001600020600083815260200190815260200160002054905092915050565b600b60009054906101000a900473ffffffffffffffffffffffffffffffffffffffff1673ffffffffffffffffffffffffffffffffffffffff163373ffffffffffffffffffffffffffffffffffffffff1614610ed7576040517f08c379a0000000000000000000000000000000000000000000000000000000008152600401610ece906146ab565b60405180910390fd5b6000610ee161158c565b73ffffffffffffffffffffffffffffffffffffffff1647604051610f049061434e565b60006040518083038185875af1925050503d8060008114610f41576040519150601f19603f3d011682016040523d82523d6000602084013e610f46565b606091505b5050905080610f5457600080fd5b50565b610f7283838360405180602001604052806000815250611a1d565b505050565b60606000610f8483611324565b905060008167ffffffffffffffff811115610fc8577f4e487b7100000000000000000000000000000000000000000000000000000000600052604160045260246000fd5b604051908082528060200260200182016040528015610ff65781602001602082028036833780820191505090505b50905060005b828110156110665761100e8582610da2565b828281518110611047577f4e487b7100000000000000000000000000000000000000000000000000000000600052603260045260246000fd5b602002602001018181525050808061105e90614ad6565b915050610ffc565b508092505050919050565b600b60009054906101000a900473ffffffffffffffffffffffffffffffffffffffff1673ffffffffffffffffffffffffffffffffffffffff163373ffffffffffffffffffffffffffffffffffffffff1614611101576040517f08c379a00000000000000000000000000000000000000000000000000000000081526004016110f8906146ab565b60405180910390fd5b80600f8190555050565b6000611115610d2f565b8210611156576040517f08c379a000000000000000000000000000000000000000000000000000000000815260040161114d9061474b565b60405180910390fd5b60088281548110611190577f4e487b7100000000000000000000000000000000000000000000000000000000600052603260045260246000fd5b90600052602060002001549050919050565b601260019054906101000a900460ff1681565b600b60009054906101000a900473ffffffffffffffffffffffffffffffffffffffff1673ffffffffffffffffffffffffffffffffffffffff163373ffffffffffffffffffffffffffffffffffffffff1614611245576040517f08c379a000000000000000000000000000000000000000000000000000000000815260040161123c906146ab565b60405180910390fd5b80600d908051906020019061125b9291906138ab565b5050565b601260009054906101000a900460ff1681565b6000806002600084815260200190815260200160002060009054906101000a900473ffffffffffffffffffffffffffffffffffffffff169050600073ffffffffffffffffffffffffffffffffffffffff168173ffffffffffffffffffffffffffffffffffffffff16141561131b576040517f08c379a00000000000000000000000000000000000000000000000000000000081526004016113129061460b565b60405180910390fd5b80915050919050565b60008073ffffffffffffffffffffffffffffffffffffffff168273ffffffffffffffffffffffffffffffffffffffff161415611395576040517f08c379a000000000000000000000000000000000000000000000000000000000815260040161138c906145eb565b60405180910390fd5b600360008373ffffffffffffffffffffffffffffffffffffffff1673ffffffffffffffffffffffffffffffffffffffff168152602001908152602001600020549050919050565b6113e4612295565b73ffffffffffffffffffffffffffffffffffffffff1661140261158c565b73ffffffffffffffffffffffffffffffffffffffff1614611458576040517f08c379a000000000000000000000000000000000000000000000000000000000815260040161144f9061468b565b60405180910390fd5b611462600061269b565b565b600b60009054906101000a900473ffffffffffffffffffffffffffffffffffffffff1673ffffffffffffffffffffffffffffffffffffffff163373ffffffffffffffffffffffffffffffffffffffff16146114f4576040517f08c379a00000000000000000000000000000000000000000000000000000000081526004016114eb906146ab565b60405180910390fd5b8060118190555050565b6060601480548060200260200160405190810160405280929190818152602001828054801561158257602002820191906000526020600020905b8160009054906101000a900473ffffffffffffffffffffffffffffffffffffffff1673ffffffffffffffffffffffffffffffffffffffff1681526020019060010190808311611538575b5050505050905090565b6000600a60009054906101000a900473ffffffffffffffffffffffffffffffffffffffff16905090565b601481815481106115c657600080fd5b906000526020600020016000915054906101000a900473ffffffffffffffffffffffffffffffffffffffff1681565b60606001805461160490614a73565b80601f016020809104026020016040519081016040528092919081815260200182805461163090614a73565b801561167d5780601f106116525761010080835404028352916020019161167d565b820191906000526020600020905b81548152906001019060200180831161166057829003601f168201915b5050505050905090565b600b60009054906101000a900473ffffffffffffffffffffffffffffffffffffffff1673ffffffffffffffffffffffffffffffffffffffff163373ffffffffffffffffffffffffffffffffffffffff1614611717576040517f08c379a000000000000000000000000000000000000000000000000000000000815260040161170e906146ab565b60405180910390fd5b6000611721610d2f565b9050601260009054906101000a900460ff1615611773576040517f08c379a000000000000000000000000000000000000000000000000000000000815260040161176a9061458b565b60405180910390fd5b600082116117b6576040517f08c379a00000000000000000000000000000000000000000000000000000000081526004016117ad9061450b565b60405180910390fd5b6011548211156117fb576040517f08c379a00000000000000000000000000000000000000000000000000000000081526004016117f29061476b565b60405180910390fd5b601054828261180a9190614902565b111561184b576040517f08c379a00000000000000000000000000000000000000000000000000000000081526004016118429061444b565b60405180910390fd5b6000600190505b8281116118815761186e3382846118699190614902565b612761565b808061187990614ad6565b915050611852565b505050565b611898611891612295565b838361277f565b5050565b600b60009054906101000a900473ffffffffffffffffffffffffffffffffffffffff1673ffffffffffffffffffffffffffffffffffffffff163373ffffffffffffffffffffffffffffffffffffffff161461192c576040517f08c379a0000000000000000000000000000000000000000000000000000000008152600401611923906146ab565b60405180910390fd5b80600c60006101000a81548173ffffffffffffffffffffffffffffffffffffffff021916908373ffffffffffffffffffffffffffffffffffffffff16021790555050565b600b60009054906101000a900473ffffffffffffffffffffffffffffffffffffffff1673ffffffffffffffffffffffffffffffffffffffff163373ffffffffffffffffffffffffffffffffffffffff1614611a00576040517f08c379a00000000000000000000000000000000000000000000000000000000081526004016119f7906146ab565b60405180910390fd5b6001601260016101000a81548160ff021916908315150217905550565b611a2e611a28612295565b83612356565b611a6d576040517f08c379a0000000000000000000000000000000000000000000000000000000008152600401611a649061472b565b60405180910390fd5b611a79848484846128ec565b50505050565b600e8054611a8c90614a73565b80601f0160208091040260200160405190810160405280929190818152602001828054611ab890614a73565b8015611b055780601f10611ada57610100808354040283529160200191611b05565b820191906000526020600020905b815481529060010190602001808311611ae857829003601f168201915b505050505081565b6060611b1882612229565b611b57576040517f08c379a0000000000000000000000000000000000000000000000000000000008152600401611b4e906146cb565b60405180910390fd5b60001515601260019054906101000a900460ff1615151415611c055760138054611b8090614a73565b80601f0160208091040260200160405190810160405280929190818152602001828054611bac90614a73565b8015611bf95780601f10611bce57610100808354040283529160200191611bf9565b820191906000526020600020905b815481529060010190602001808311611bdc57829003601f168201915b50505050509050611c61565b6000611c0f612948565b90506000815111611c2f5760405180602001604052806000815250611c5d565b80611c39846129da565b600e604051602001611c4d9392919061431d565b6040516020818303038152906040525b9150505b919050565b60105481565b600b60009054906101000a900473ffffffffffffffffffffffffffffffffffffffff1673ffffffffffffffffffffffffffffffffffffffff163373ffffffffffffffffffffffffffffffffffffffff1614611cfc576040517f08c379a0000000000000000000000000000000000000000000000000000000008152600401611cf3906146ab565b60405180910390fd5b80600e9080519060200190611d129291906138ab565b5050565b6000600560008473ffffffffffffffffffffffffffffffffffffffff1673ffffffffffffffffffffffffffffffffffffffff16815260200190815260200160002060008373ffffffffffffffffffffffffffffffffffffffff1673ffffffffffffffffffffffffffffffffffffffff16815260200190815260200160002060009054906101000a900460ff16905092915050565b600b60009054906101000a900473ffffffffffffffffffffffffffffffffffffffff1673ffffffffffffffffffffffffffffffffffffffff163373ffffffffffffffffffffffffffffffffffffffff1614611e3a576040517f08c379a0000000000000000000000000000000000000000000000000000000008152600401611e31906146ab565b60405180910390fd5b8060139080519060200190611e509291906138ab565b5050565b611e5c612295565b73ffffffffffffffffffffffffffffffffffffffff16611e7a61158c565b73ffffffffffffffffffffffffffffffffffffffff1614611ed0576040517f08c379a0000000000000000000000000000000000000000000000000000000008152600401611ec79061468b565b60405180910390fd5b600073ffffffffffffffffffffffffffffffffffffffff168173ffffffffffffffffffffffffffffffffffffffff161415611f40576040517f08c379a0000000000000000000000000000000000000000000000000000000008152600401611f37906144ab565b60405180910390fd5b611f498161269b565b50565b600c60009054906101000a900473ffffffffffffffffffffffffffffffffffffffff1673ffffffffffffffffffffffffffffffffffffffff163373ffffffffffffffffffffffffffffffffffffffff161480611ff55750600b60009054906101000a900473ffffffffffffffffffffffffffffffffffffffff1673ffffffffffffffffffffffffffffffffffffffff163373ffffffffffffffffffffffffffffffffffffffff16145b612034576040517f08c379a000000000000000000000000000000000000000000000000000000000815260040161202b906146eb565b60405180910390fd5b600061203e610d2f565b9050601260009054906101000a900460ff1615612090576040517f08c379a00000000000000000000000000000000000000000000000000000000081526004016120879061458b565b60405180910390fd5b6010546001826120a09190614902565b11156120e1576040517f08c379a00000000000000000000000000000000000000000000000000000000081526004016120d8906145ab565b60405180910390fd5b60006120ec83610f77565b511461212d576040517f08c379a00000000000000000000000000000000000000000000000000000000081526004016121249061466b565b60405180910390fd5b6121438260018361213e9190614902565b612761565b5050565b60007f80ac58cd000000000000000000000000000000000000000000000000000000007bffffffffffffffffffffffffffffffffffffffffffffffffffffffff1916827bffffffffffffffffffffffffffffffffffffffffffffffffffffffff1916148061221257507f5b5e139f000000000000000000000000000000000000000000000000000000007bffffffffffffffffffffffffffffffffffffffffffffffffffffffff1916827bffffffffffffffffffffffffffffffffffffffffffffffffffffffff1916145b80612222575061222182612b87565b5b9050919050565b60008073ffffffffffffffffffffffffffffffffffffffff166002600084815260200190815260200160002060009054906101000a900473ffffffffffffffffffffffffffffffffffffffff1673ffffffffffffffffffffffffffffffffffffffff1614159050919050565b600033905090565b816004600083815260200190815260200160002060006101000a81548173ffffffffffffffffffffffffffffffffffffffff021916908373ffffffffffffffffffffffffffffffffffffffff160217905550808273ffffffffffffffffffffffffffffffffffffffff1661231083611272565b73ffffffffffffffffffffffffffffffffffffffff167f8c5be1e5ebec7d5bd14f71427d1e84f3dd0314c0f7b2291e5b200ac8c7c3b92560405160405180910390a45050565b600061236182612229565b6123a0576040517f08c379a00000000000000000000000000000000000000000000000000000000081526004016123979061456b565b60405180910390fd5b60006123ab83611272565b90508073ffffffffffffffffffffffffffffffffffffffff168473ffffffffffffffffffffffffffffffffffffffff1614806123ed57506123ec8185611d16565b5b8061242b57508373ffffffffffffffffffffffffffffffffffffffff1661241384610afe565b73ffffffffffffffffffffffffffffffffffffffff16145b91505092915050565b8273ffffffffffffffffffffffffffffffffffffffff1661245482611272565b73ffffffffffffffffffffffffffffffffffffffff16146124aa576040517f08c379a00000000000000000000000000000000000000000000000000000000081526004016124a1906144cb565b60405180910390fd5b600073ffffffffffffffffffffffffffffffffffffffff168273ffffffffffffffffffffffffffffffffffffffff16141561251a576040517f08c379a00000000000000000000000000000000000000000000000000000000081526004016125119061452b565b60405180910390fd5b612525838383612bf1565b61253060008261229d565b6001600360008573ffffffffffffffffffffffffffffffffffffffff1673ffffffffffffffffffffffffffffffffffffffff16815260200190815260200160002060008282546125809190614989565b925050819055506001600360008473ffffffffffffffffffffffffffffffffffffffff1673ffffffffffffffffffffffffffffffffffffffff16815260200190815260200160002060008282546125d79190614902565b92505081905550816002600083815260200190815260200160002060006101000a81548173ffffffffffffffffffffffffffffffffffffffff021916908373ffffffffffffffffffffffffffffffffffffffff160217905550808273ffffffffffffffffffffffffffffffffffffffff168473ffffffffffffffffffffffffffffffffffffffff167fddf252ad1be2c89b69c2b068fc378daa952ba7f163c4a11628f55a4df523b3ef60405160405180910390a4612696838383612ca1565b505050565b6000600a60009054906101000a900473ffffffffffffffffffffffffffffffffffffffff16905081600a60006101000a81548173ffffffffffffffffffffffffffffffffffffffff021916908373ffffffffffffffffffffffffffffffffffffffff1602179055508173ffffffffffffffffffffffffffffffffffffffff168173ffffffffffffffffffffffffffffffffffffffff167f8be0079c531659141344cd1fd0a4f28419497f9722a3daafe3b4186f6b6457e060405160405180910390a35050565b61277b828260405180602001604052806000815250612ca6565b5050565b8173ffffffffffffffffffffffffffffffffffffffff168373ffffffffffffffffffffffffffffffffffffffff1614156127ee576040517f08c379a00000000000000000000000000000000000000000000000000000000081526004016127e59061454b565b60405180910390fd5b80600560008573ffffffffffffffffffffffffffffffffffffffff1673ffffffffffffffffffffffffffffffffffffffff16815260200190815260200160002060008473ffffffffffffffffffffffffffffffffffffffff1673ffffffffffffffffffffffffffffffffffffffff16815260200190815260200160002060006101000a81548160ff0219169083151502179055508173ffffffffffffffffffffffffffffffffffffffff168373ffffffffffffffffffffffffffffffffffffffff167f17307eab39ab6107e8899845ad3d59bd9653f200f220920489ca2b5937696c31836040516128df919061440e565b60405180910390a3505050565b6128f7848484612434565b61290384848484612d01565b612942576040517f08c379a00000000000000000000000000000000000000000000000000000000081526004016129399061448b565b60405180910390fd5b50505050565b6060600d805461295790614a73565b80601f016020809104026020016040519081016040528092919081815260200182805461298390614a73565b80156129d05780601f106129a5576101008083540402835291602001916129d0565b820191906000526020600020905b8154815290600101906020018083116129b357829003601f168201915b5050505050905090565b60606000821415612a22576040518060400160405280600181526020017f30000000000000000000000000000000000000000000000000000000000000008152509050612b82565b600082905060005b60008214612a54578080612a3d90614ad6565b915050600a82612a4d9190614958565b9150612a2a565b60008167ffffffffffffffff811115612a96577f4e487b7100000000000000000000000000000000000000000000000000000000600052604160045260246000fd5b6040519080825280601f01601f191660200182016040528015612ac85781602001600182028036833780820191505090505b5090505b60008514612b7b57600182612ae19190614989565b9150600a85612af09190614b1f565b6030612afc9190614902565b60f81b818381518110612b38577f4e487b7100000000000000000000000000000000000000000000000000000000600052603260045260246000fd5b60200101907effffffffffffffffffffffffffffffffffffffffffffffffffffffffffffff1916908160001a905350600a85612b749190614958565b9450612acc565b8093505050505b919050565b60007f01ffc9a7000000000000000000000000000000000000000000000000000000007bffffffffffffffffffffffffffffffffffffffffffffffffffffffff1916827bffffffffffffffffffffffffffffffffffffffffffffffffffffffff1916149050919050565b612bfc838383612e98565b8173ffffffffffffffffffffffffffffffffffffffff168373ffffffffffffffffffffffffffffffffffffffff1614612c9c57612c3883612fac565b6014829080600181540180825580915050600190039060005260206000200160009091909190916101000a81548173ffffffffffffffffffffffffffffffffffffffff021916908373ffffffffffffffffffffffffffffffffffffffff1602179055505b505050565b505050565b612cb08383613331565b612cbd6000848484612d01565b612cfc576040517f08c379a0000000000000000000000000000000000000000000000000000000008152600401612cf39061448b565b60405180910390fd5b505050565b6000612d228473ffffffffffffffffffffffffffffffffffffffff1661350b565b15612e8b578373ffffffffffffffffffffffffffffffffffffffff1663150b7a02612d4b612295565b8786866040518563ffffffff1660e01b8152600401612d6d949392919061437e565b602060405180830381600087803b158015612d8757600080fd5b505af1925050508015612db857506040513d601f19601f82011682018060405250810190612db59190613c80565b60015b612e3b573d8060008114612de8576040519150601f19603f3d011682016040523d82523d6000602084013e612ded565b606091505b50600081511415612e33576040517f08c379a0000000000000000000000000000000000000000000000000000000008152600401612e2a9061448b565b60405180910390fd5b805181602001fd5b63150b7a0260e01b7bffffffffffffffffffffffffffffffffffffffffffffffffffffffff1916817bffffffffffffffffffffffffffffffffffffffffffffffffffffffff191614915050612e90565b600190505b949350505050565b612ea383838361352e565b600073ffffffffffffffffffffffffffffffffffffffff168373ffffffffffffffffffffffffffffffffffffffff161415612ee657612ee181613533565b612f25565b8173ffffffffffffffffffffffffffffffffffffffff168373ffffffffffffffffffffffffffffffffffffffff1614612f2457612f23838261357c565b5b5b600073ffffffffffffffffffffffffffffffffffffffff168273ffffffffffffffffffffffffffffffffffffffff161415612f6857612f63816136e9565b612fa7565b8273ffffffffffffffffffffffffffffffffffffffff168273ffffffffffffffffffffffffffffffffffffffff1614612fa657612fa5828261382c565b5b5b505050565b6000601480549050111561332e5760008173ffffffffffffffffffffffffffffffffffffffff1660146001601480549050612fe79190614989565b8154811061301e577f4e487b7100000000000000000000000000000000000000000000000000000000600052603260045260246000fd5b9060005260206000200160009054906101000a900473ffffffffffffffffffffffffffffffffffffffff1673ffffffffffffffffffffffffffffffffffffffff16141561306e5760019050613240565b60005b60016014805490506130839190614989565b81101561323e578115801561312757508273ffffffffffffffffffffffffffffffffffffffff16601482815481106130e4577f4e487b7100000000000000000000000000000000000000000000000000000000600052603260045260246000fd5b9060005260206000200160009054906101000a900473ffffffffffffffffffffffffffffffffffffffff1673ffffffffffffffffffffffffffffffffffffffff16145b1561313157600191505b811561322b5760146001826131469190614902565b8154811061317d577f4e487b7100000000000000000000000000000000000000000000000000000000600052603260045260246000fd5b9060005260206000200160009054906101000a900473ffffffffffffffffffffffffffffffffffffffff16601482815481106131e2577f4e487b7100000000000000000000000000000000000000000000000000000000600052603260045260246000fd5b9060005260206000200160006101000a81548173ffffffffffffffffffffffffffffffffffffffff021916908373ffffffffffffffffffffffffffffffffffffffff1602179055505b808061323690614ad6565b915050613071565b505b801561332c576014600160148054905061325a9190614989565b81548110613291577f4e487b7100000000000000000000000000000000000000000000000000000000600052603260045260246000fd5b9060005260206000200160006101000a81549073ffffffffffffffffffffffffffffffffffffffff021916905560148054806132f6577f4e487b7100000000000000000000000000000000000000000000000000000000600052603160045260246000fd5b6001900381819060005260206000200160006101000a81549073ffffffffffffffffffffffffffffffffffffffff021916905590555b505b50565b600073ffffffffffffffffffffffffffffffffffffffff168273ffffffffffffffffffffffffffffffffffffffff1614156133a1576040517f08c379a00000000000000000000000000000000000000000000000000000000081526004016133989061462b565b60405180910390fd5b6133aa81612229565b156133ea576040517f08c379a00000000000000000000000000000000000000000000000000000000081526004016133e1906144eb565b60405180910390fd5b6133f660008383612bf1565b6001600360008473ffffffffffffffffffffffffffffffffffffffff1673ffffffffffffffffffffffffffffffffffffffff16815260200190815260200160002060008282546134469190614902565b92505081905550816002600083815260200190815260200160002060006101000a81548173ffffffffffffffffffffffffffffffffffffffff021916908373ffffffffffffffffffffffffffffffffffffffff160217905550808273ffffffffffffffffffffffffffffffffffffffff16600073ffffffffffffffffffffffffffffffffffffffff167fddf252ad1be2c89b69c2b068fc378daa952ba7f163c4a11628f55a4df523b3ef60405160405180910390a461350760008383612ca1565b5050565b6000808273ffffffffffffffffffffffffffffffffffffffff163b119050919050565b505050565b6008805490506009600083815260200190815260200160002081905550600881908060018154018082558091505060019003906000526020600020016000909190919091505550565b6000600161358984611324565b6135939190614989565b9050600060076000848152602001908152602001600020549050818114613678576000600660008673ffffffffffffffffffffffffffffffffffffffff1673ffffffffffffffffffffffffffffffffffffffff168152602001908152602001600020600084815260200190815260200160002054905080600660008773ffffffffffffffffffffffffffffffffffffffff1673ffffffffffffffffffffffffffffffffffffffff168152602001908152602001600020600084815260200190815260200160002081905550816007600083815260200190815260200160002081905550505b6007600084815260200190815260200160002060009055600660008573ffffffffffffffffffffffffffffffffffffffff1673ffffffffffffffffffffffffffffffffffffffff16815260200190815260200160002060008381526020019081526020016000206000905550505050565b600060016008805490506136fd9190614989565b9050600060096000848152602001908152602001600020549050600060088381548110613753577f4e487b7100000000000000000000000000000000000000000000000000000000600052603260045260246000fd5b90600052602060002001549050806008838154811061379b577f4e487b7100000000000000000000000000000000000000000000000000000000600052603260045260246000fd5b906000526020600020018190555081600960008381526020019081526020016000208190555060096000858152602001908152602001600020600090556008805480613810577f4e487b7100000000000000000000000000000000000000000000000000000000600052603160045260246000fd5b6001900381819060005260206000200160009055905550505050565b600061383783611324565b905081600660008573ffffffffffffffffffffffffffffffffffffffff1673ffffffffffffffffffffffffffffffffffffffff168152602001908152602001600020600083815260200190815260200160002081905550806007600084815260200190815260200160002081905550505050565b8280546138b790614a73565b90600052602060002090601f0160209004810192826138d95760008555613920565b82601f106138f257805160ff1916838001178555613920565b82800160010185558215613920579182015b8281111561391f578251825591602001919060010190613904565b5b50905061392d9190613931565b5090565b5b8082111561394a576000816000905550600101613932565b5090565b600061396161395c846147cb565b6147a6565b90508281526020810184848401111561397957600080fd5b613984848285614a31565b509392505050565b600061399f61399a846147fc565b6147a6565b9050828152602081018484840111156139b757600080fd5b6139c2848285614a31565b509392505050565b6000813590506139d981615368565b92915050565b6000813590506139ee8161537f565b92915050565b600081359050613a0381615396565b92915050565b600081519050613a1881615396565b92915050565b600082601f830112613a2f57600080fd5b8135613a3f84826020860161394e565b91505092915050565b600082601f830112613a5957600080fd5b8135613a6984826020860161398c565b91505092915050565b600081359050613a81816153ad565b92915050565b600060208284031215613a9957600080fd5b6000613aa7848285016139ca565b91505092915050565b60008060408385031215613ac357600080fd5b6000613ad1858286016139ca565b9250506020613ae2858286016139ca565b9150509250929050565b600080600060608486031215613b0157600080fd5b6000613b0f868287016139ca565b9350506020613b20868287016139ca565b9250506040613b3186828701613a72565b9150509250925092565b60008060008060808587031215613b5157600080fd5b6000613b5f878288016139ca565b9450506020613b70878288016139ca565b9350506040613b8187828801613a72565b925050606085013567ffffffffffffffff811115613b9e57600080fd5b613baa87828801613a1e565b91505092959194509250565b60008060408385031215613bc957600080fd5b6000613bd7858286016139ca565b9250506020613be8858286016139df565b9150509250929050565b60008060408385031215613c0557600080fd5b6000613c13858286016139ca565b9250506020613c2485828601613a72565b9150509250929050565b600060208284031215613c4057600080fd5b6000613c4e848285016139df565b91505092915050565b600060208284031215613c6957600080fd5b6000613c77848285016139f4565b91505092915050565b600060208284031215613c9257600080fd5b6000613ca084828501613a09565b91505092915050565b600060208284031215613cbb57600080fd5b600082013567ffffffffffffffff811115613cd557600080fd5b613ce184828501613a48565b91505092915050565b600060208284031215613cfc57600080fd5b6000613d0a84828501613a72565b91505092915050565b6000613d1f8383613d43565b60208301905092915050565b6000613d3783836142ff565b60208301905092915050565b613d4c816149bd565b82525050565b613d5b816149bd565b82525050565b6000613d6c82614862565b613d7681856148a8565b9350613d818361482d565b8060005b83811015613db2578151613d998882613d13565b9750613da48361488e565b925050600181019050613d85565b5085935050505092915050565b6000613dca8261486d565b613dd481856148b9565b9350613ddf8361483d565b8060005b83811015613e10578151613df78882613d2b565b9750613e028361489b565b925050600181019050613de3565b5085935050505092915050565b613e26816149cf565b82525050565b6000613e3782614878565b613e4181856148ca565b9350613e51818560208601614a40565b613e5a81614c0c565b840191505092915050565b6000613e7082614883565b613e7a81856148e6565b9350613e8a818560208601614a40565b613e9381614c0c565b840191505092915050565b6000613ea982614883565b613eb381856148f7565b9350613ec3818560208601614a40565b80840191505092915050565b60008154613edc81614a73565b613ee681866148f7565b94506001821660008114613f015760018114613f1257613f45565b60ff19831686528186019350613f45565b613f1b8561484d565b60005b83811015613f3d57815481890152600182019150602081019050613f1e565b838801955050505b50505092915050565b6000613f5b6037836148e6565b9150613f6682614c1d565b604082019050919050565b6000613f7e602b836148e6565b9150613f8982614c6c565b604082019050919050565b6000613fa16032836148e6565b9150613fac82614cbb565b604082019050919050565b6000613fc46026836148e6565b9150613fcf82614d0a565b604082019050919050565b6000613fe76025836148e6565b9150613ff282614d59565b604082019050919050565b600061400a601c836148e6565b915061401582614da8565b602082019050919050565b600061402d6023836148e6565b915061403882614dd1565b604082019050919050565b60006140506024836148e6565b915061405b82614e20565b604082019050919050565b60006140736019836148e6565b915061407e82614e6f565b602082019050919050565b6000614096602c836148e6565b91506140a182614e98565b604082019050919050565b60006140b9601c836148e6565b91506140c482614ee7565b602082019050919050565b60006140dc6022836148e6565b91506140e782614f10565b604082019050919050565b60006140ff6038836148e6565b915061410a82614f5f565b604082019050919050565b6000614122602a836148e6565b915061412d82614fae565b604082019050919050565b60006141456029836148e6565b915061415082614ffd565b604082019050919050565b60006141686020836148e6565b91506141738261504c565b602082019050919050565b600061418b602c836148e6565b915061419682615075565b604082019050919050565b60006141ae6031836148e6565b91506141b9826150c4565b604082019050919050565b60006141d16020836148e6565b91506141dc82615113565b602082019050919050565b60006141f4602f836148e6565b91506141ff8261513c565b604082019050919050565b6000614217602f836148e6565b91506142228261518b565b604082019050919050565b600061423a603a836148e6565b9150614245826151da565b604082019050919050565b600061425d6021836148e6565b915061426882615229565b604082019050919050565b60006142806000836148db565b915061428b82615278565b600082019050919050565b60006142a36031836148e6565b91506142ae8261527b565b604082019050919050565b60006142c6602c836148e6565b91506142d1826152ca565b604082019050919050565b60006142e96030836148e6565b91506142f482615319565b604082019050919050565b61430881614a27565b82525050565b61431781614a27565b82525050565b60006143298286613e9e565b91506143358285613e9e565b91506143418284613ecf565b9150819050949350505050565b600061435982614273565b9150819050919050565b60006020820190506143786000830184613d52565b92915050565b60006080820190506143936000830187613d52565b6143a06020830186613d52565b6143ad604083018561430e565b81810360608301526143bf8184613e2c565b905095945050505050565b600060208201905081810360008301526143e48184613d61565b905092915050565b600060208201905081810360008301526144068184613dbf565b905092915050565b60006020820190506144236000830184613e1d565b92915050565b600060208201905081810360008301526144438184613e65565b905092915050565b6000602082019050818103600083015261446481613f4e565b9050919050565b6000602082019050818103600083015261448481613f71565b9050919050565b600060208201905081810360008301526144a481613f94565b9050919050565b600060208201905081810360008301526144c481613fb7565b9050919050565b600060208201905081810360008301526144e481613fda565b9050919050565b6000602082019050818103600083015261450481613ffd565b9050919050565b6000602082019050818103600083015261452481614020565b9050919050565b6000602082019050818103600083015261454481614043565b9050919050565b6000602082019050818103600083015261456481614066565b9050919050565b6000602082019050818103600083015261458481614089565b9050919050565b600060208201905081810360008301526145a4816140ac565b9050919050565b600060208201905081810360008301526145c4816140cf565b9050919050565b600060208201905081810360008301526145e4816140f2565b9050919050565b6000602082019050818103600083015261460481614115565b9050919050565b6000602082019050818103600083015261462481614138565b9050919050565b600060208201905081810360008301526146448161415b565b9050919050565b600060208201905081810360008301526146648161417e565b9050919050565b60006020820190508181036000830152614684816141a1565b9050919050565b600060208201905081810360008301526146a4816141c4565b9050919050565b600060208201905081810360008301526146c4816141e7565b9050919050565b600060208201905081810360008301526146e48161420a565b9050919050565b600060208201905081810360008301526147048161422d565b9050919050565b6000602082019050818103600083015261472481614250565b9050919050565b6000602082019050818103600083015261474481614296565b9050919050565b60006020820190508181036000830152614764816142b9565b9050919050565b60006020820190508181036000830152614784816142dc565b9050919050565b60006020820190506147a0600083018461430e565b92915050565b60006147b06147c1565b90506147bc8282614aa5565b919050565b6000604051905090565b600067ffffffffffffffff8211156147e6576147e5614bdd565b5b6147ef82614c0c565b9050602081019050919050565b600067ffffffffffffffff82111561481757614816614bdd565b5b61482082614c0c565b9050602081019050919050565b6000819050602082019050919050565b6000819050602082019050919050565b60008190508160005260206000209050919050565b600081519050919050565b600081519050919050565b600081519050919050565b600081519050919050565b6000602082019050919050565b6000602082019050919050565b600082825260208201905092915050565b600082825260208201905092915050565b600082825260208201905092915050565b600081905092915050565b600082825260208201905092915050565b600081905092915050565b600061490d82614a27565b915061491883614a27565b9250827fffffffffffffffffffffffffffffffffffffffffffffffffffffffffffffffff0382111561494d5761494c614b50565b5b828201905092915050565b600061496382614a27565b915061496e83614a27565b92508261497e5761497d614b7f565b5b828204905092915050565b600061499482614a27565b915061499f83614a27565b9250828210156149b2576149b1614b50565b5b828203905092915050565b60006149c882614a07565b9050919050565b60008115159050919050565b60007fffffffff0000000000000000000000000000000000000000000000000000000082169050919050565b600073ffffffffffffffffffffffffffffffffffffffff82169050919050565b6000819050919050565b82818337600083830152505050565b60005b83811015614a5e578082015181840152602081019050614a43565b83811115614a6d576000848401525b50505050565b60006002820490506001821680614a8b57607f821691505b60208210811415614a9f57614a9e614bae565b5b50919050565b614aae82614c0c565b810181811067ffffffffffffffff82111715614acd57614acc614bdd565b5b80604052505050565b6000614ae182614a27565b91507fffffffffffffffffffffffffffffffffffffffffffffffffffffffffffffffff821415614b1457614b13614b50565b5b600182019050919050565b6000614b2a82614a27565b9150614b3583614a27565b925082614b4557614b44614b7f565b5b828206905092915050565b7f4e487b7100000000000000000000000000000000000000000000000000000000600052601160045260246000fd5b7f4e487b7100000000000000000000000000000000000000000000000000000000600052601260045260246000fd5b7f4e487b7100000000000000000000000000000000000000000000000000000000600052602260045260246000fd5b7f4e487b7100000000000000000000000000000000000000000000000000000000600052604160045260246000fd5b6000601f19601f8301169050919050565b7f47616d654e4654546f6b656e3a204e6f7420656e6f756768206c65667420666f60008201527f7220796f7520746f206d696e742074686174206d616e79000000000000000000602082015250565b7f455243373231456e756d657261626c653a206f776e657220696e646578206f7560008201527f74206f6620626f756e6473000000000000000000000000000000000000000000602082015250565b7f4552433732313a207472616e7366657220746f206e6f6e20455243373231526560008201527f63656976657220696d706c656d656e7465720000000000000000000000000000602082015250565b7f4f776e61626c653a206e6577206f776e657220697320746865207a65726f206160008201527f6464726573730000000000000000000000000000000000000000000000000000602082015250565b7f4552433732313a207472616e736665722066726f6d20696e636f72726563742060008201527f6f776e6572000000000000000000000000000000000000000000000000000000602082015250565b7f4552433732313a20746f6b656e20616c7265616479206d696e74656400000000600082015250565b7f47616d654e4654546f6b656e3a204e6f20706f696e74206d696e74696e67207a60008201527f65726f0000000000000000000000000000000000000000000000000000000000602082015250565b7f4552433732313a207472616e7366657220746f20746865207a65726f2061646460008201527f7265737300000000000000000000000000000000000000000000000000000000602082015250565b7f4552433732313a20617070726f766520746f2063616c6c657200000000000000600082015250565b7f4552433732313a206f70657261746f7220717565727920666f72206e6f6e657860008201527f697374656e7420746f6b656e0000000000000000000000000000000000000000602082015250565b7f47616d654e4654546f6b656e3a204d696e74696e672070617573656400000000600082015250565b7f47616d654e4654546f6b656e3a204e6f206d6f7265206c65667420746f206d6960008201527f6e74000000000000000000000000000000000000000000000000000000000000602082015250565b7f4552433732313a20617070726f76652063616c6c6572206973206e6f74206f7760008201527f6e6572206e6f7220617070726f76656420666f7220616c6c0000000000000000602082015250565b7f4552433732313a2062616c616e636520717565727920666f7220746865207a6560008201527f726f206164647265737300000000000000000000000000000000000000000000602082015250565b7f4552433732313a206f776e657220717565727920666f72206e6f6e657869737460008201527f656e7420746f6b656e0000000000000000000000000000000000000000000000602082015250565b7f4552433732313a206d696e7420746f20746865207a65726f2061646472657373600082015250565b7f4552433732313a20617070726f76656420717565727920666f72206e6f6e657860008201527f697374656e7420746f6b656e0000000000000000000000000000000000000000602082015250565b7f47616d654e4654546f6b656e3a20446f6e2774206265206772656564792c206f60008201527f6e65204e46542070657220706572736f6e000000000000000000000000000000602082015250565b7f4f776e61626c653a2063616c6c6572206973206e6f7420746865206f776e6572600082015250565b7f47616d654e4654546f6b656e3a2041646d696e2063616e20706572666f726d2060008201527f74686973206f7065726174696f6e2e0000000000000000000000000000000000602082015250565b7f4552433732314d657461646174613a2055524920717565727920666f72206e6f60008201527f6e6578697374656e7420746f6b656e0000000000000000000000000000000000602082015250565b7f47616d654e4654546f6b656e3a2041646d696e206f722050324547616d65206360008201527f616e20706572666f726d2074686973206f7065726174696f6e2e000000000000602082015250565b7f4552433732313a20617070726f76616c20746f2063757272656e74206f776e6560008201527f7200000000000000000000000000000000000000000000000000000000000000602082015250565b50565b7f4552433732313a207472616e736665722063616c6c6572206973206e6f74206f60008201527f776e6572206e6f7220617070726f766564000000000000000000000000000000602082015250565b7f455243373231456e756d657261626c653a20676c6f62616c20696e646578206f60008201527f7574206f6620626f756e64730000000000000000000000000000000000000000602082015250565b7f47616d654e4654546f6b656e3a20596f752063616e2774206d696e742074686160008201527f74206d616e7920696e206f6e6520676f00000000000000000000000000000000602082015250565b615371816149bd565b811461537c57600080fd5b50565b615388816149cf565b811461539357600080fd5b50565b61539f816149db565b81146153aa57600080fd5b50565b6153b681614a27565b81146153c157600080fd5b5056fea2646970667358221220cf9fa09ec0084d3968b73f4697c5a385e38af5d669fb90982f0540ea9998880764736f6c63430008040033",
  "linkReferences": {},
  "deployedLinkReferences": {}
}