{
  "_format": "hh-sol-artifact-1",
  "contractName": "P2EGame",
  "sourceName": "contracts/P2EGame.sol",
  "abi": [
    {
      "inputs": [
        {
          "internalType": "address",
          "name": "_tokenAddress",
          "type": "address"
        },
        {
          "internalType": "address",
          "name": "_nftAddress",
          "type": "address"
        }
      ],
      "stateMutability": "nonpayable",
      "type": "constructor"
    },
    {
      "anonymous": false,
      "inputs": [
        {
          "indexed": false,
          "internalType": "uint256",
          "name": "id",
          "type": "uint256"
        }
      ],
      "name": "GameFinished",
      "type": "event"
    },
    {
      "anonymous": false,
      "inputs": [
        {
          "indexed": false,
          "internalType": "uint256",
          "name": "id",
          "type": "uint256"
        }
      ],
      "name": "GameSettled",
      "type": "event"
    },
    {
      "anonymous": false,
      "inputs": [
        {
          "indexed": false,
          "internalType": "uint256",
          "name": "id",
          "type": "uint256"
        }
      ],
      "name": "GameStarted",
      "type": "event"
    },
    {
      "anonymous": false,
      "inputs": [
        {
          "indexed": false,
          "internalType": "uint256",
          "name": "id",
          "type": "uint256"
        }
      ],
      "name": "NewGame",
      "type": "event"
    },
    {
      "anonymous": false,
      "inputs": [
        {
          "indexed": true,
          "internalType": "address",
          "name": "previousOwner",
          "type": "address"
        },
        {
          "indexed": true,
          "internalType": "address",
          "name": "newOwner",
          "type": "address"
        }
      ],
      "name": "OwnershipTransferred",
      "type": "event"
    },
    {
      "anonymous": false,
      "inputs": [
        {
          "indexed": false,
          "internalType": "address",
          "name": "playerAddress",
          "type": "address"
        },
        {
          "indexed": false,
          "internalType": "uint256",
          "name": "clientId",
          "type": "uint256"
        }
      ],
      "name": "PlayerJoinedGame",
      "type": "event"
    },
    {
      "anonymous": false,
      "inputs": [
        {
          "indexed": false,
          "internalType": "address",
          "name": "playerAddress",
          "type": "address"
        }
      ],
      "name": "PlayerWon",
      "type": "event"
    },
    {
      "inputs": [
        {
          "internalType": "uint256",
          "name": "clientId",
          "type": "uint256"
        }
      ],
      "name": "addPlayerToGameSession",
      "outputs": [],
      "stateMutability": "nonpayable",
      "type": "function"
    },
    {
      "inputs": [
        {
          "internalType": "bytes",
          "name": "",
          "type": "bytes"
        }
      ],
      "name": "checkUpkeep",
      "outputs": [
        {
          "internalType": "bool",
          "name": "upkeepNeeded",
          "type": "bool"
        },
        {
          "internalType": "bytes",
          "name": "",
          "type": "bytes"
        }
      ],
      "stateMutability": "view",
      "type": "function"
    },
    {
      "inputs": [],
      "name": "contractBalance",
      "outputs": [
        {
          "internalType": "uint256",
          "name": "",
          "type": "uint256"
        }
      ],
      "stateMutability": "view",
      "type": "function"
    },
    {
      "inputs": [],
      "name": "gameId",
      "outputs": [
        {
          "internalType": "uint256",
          "name": "",
          "type": "uint256"
        }
      ],
      "stateMutability": "view",
      "type": "function"
    },
    {
      "inputs": [],
      "name": "gameLengthSeconds",
      "outputs": [
        {
          "internalType": "uint256",
          "name": "",
          "type": "uint256"
        }
      ],
      "stateMutability": "view",
      "type": "function"
    },
    {
      "inputs": [],
      "name": "gameSessionState",
      "outputs": [
        {
          "internalType": "enum P2EGame.GameSessionState",
          "name": "",
          "type": "uint8"
        }
      ],
      "stateMutability": "view",
      "type": "function"
    },
    {
      "inputs": [
        {
          "internalType": "uint256",
          "name": "_gameId",
          "type": "uint256"
        }
      ],
      "name": "getGameSessions",
      "outputs": [
        {
          "components": [
            {
              "internalType": "address[]",
              "name": "players",
              "type": "address[]"
            },
            {
              "internalType": "address",
              "name": "winner",
              "type": "address"
            }
          ],
          "internalType": "struct P2EGame.GameSession",
          "name": "",
          "type": "tuple"
        }
      ],
      "stateMutability": "view",
      "type": "function"
    },
    {
      "inputs": [],
      "name": "inLobbySeconds",
      "outputs": [
        {
          "internalType": "uint256",
          "name": "",
          "type": "uint256"
        }
      ],
      "stateMutability": "view",
      "type": "function"
    },
    {
      "inputs": [],
      "name": "lastTimestamp",
      "outputs": [
        {
          "internalType": "uint256",
          "name": "",
          "type": "uint256"
        }
      ],
      "stateMutability": "view",
      "type": "function"
    },
    {
      "inputs": [],
      "name": "lastYieldTimestamp",
      "outputs": [
        {
          "internalType": "uint256",
          "name": "",
          "type": "uint256"
        }
      ],
      "stateMutability": "view",
      "type": "function"
    },
    {
      "inputs": [],
      "name": "mintOne",
      "outputs": [],
      "stateMutability": "payable",
      "type": "function"
    },
    {
      "inputs": [],
      "name": "nftAddress",
      "outputs": [
        {
          "internalType": "address",
          "name": "",
          "type": "address"
        }
      ],
      "stateMutability": "view",
      "type": "function"
    },
    {
      "inputs": [],
      "name": "owner",
      "outputs": [
        {
          "internalType": "address",
          "name": "",
          "type": "address"
        }
      ],
      "stateMutability": "view",
      "type": "function"
    },
    {
      "inputs": [
        {
          "internalType": "bytes",
          "name": "",
          "type": "bytes"
        }
      ],
      "name": "performUpkeep",
      "outputs": [],
      "stateMutability": "nonpayable",
      "type": "function"
    },
    {
      "inputs": [
        {
          "internalType": "address",
          "name": "_player",
          "type": "address"
        }
      ],
      "name": "playerWon",
      "outputs": [],
      "stateMutability": "nonpayable",
      "type": "function"
    },
    {
      "inputs": [],
      "name": "renounceOwnership",
      "outputs": [],
      "stateMutability": "nonpayable",
      "type": "function"
    },
    {
      "inputs": [
        {
          "internalType": "address",
          "name": "_keeper",
          "type": "address"
        }
      ],
      "name": "setKeeper",
      "outputs": [],
      "stateMutability": "nonpayable",
      "type": "function"
    },
    {
      "inputs": [],
      "name": "showScoresSeconds",
      "outputs": [
        {
          "internalType": "uint256",
          "name": "",
          "type": "uint256"
        }
      ],
      "stateMutability": "view",
      "type": "function"
    },
    {
      "inputs": [],
      "name": "tokenAddress",
      "outputs": [
        {
          "internalType": "address",
          "name": "",
          "type": "address"
        }
      ],
      "stateMutability": "view",
      "type": "function"
    },
    {
      "inputs": [
        {
          "internalType": "address",
          "name": "newOwner",
          "type": "address"
        }
      ],
      "name": "transferOwnership",
      "outputs": [],
      "stateMutability": "nonpayable",
      "type": "function"
    }
  ],
  "bytecode": "0x6080604052600060075560006008553480156200001b57600080fd5b506040516200343438038062003434833981810160405281019062000041919062000270565b62000061620000556200018d60201b60201c565b6200019560201b60201c565b81600460006101000a81548173ffffffffffffffffffffffffffffffffffffffff021916908373ffffffffffffffffffffffffffffffffffffffff16021790555080600560006101000a81548173ffffffffffffffffffffffffffffffffffffffff021916908373ffffffffffffffffffffffffffffffffffffffff16021790555033600160006101000a81548173ffffffffffffffffffffffffffffffffffffffff021916908373ffffffffffffffffffffffffffffffffffffffff16021790555060006006819055506000600960006101000a81548160ff0219169083600381111562000179577f4e487b7100000000000000000000000000000000000000000000000000000000600052602160045260246000fd5b0217905550426008819055505050620002ff565b600033905090565b60008060009054906101000a900473ffffffffffffffffffffffffffffffffffffffff169050816000806101000a81548173ffffffffffffffffffffffffffffffffffffffff021916908373ffffffffffffffffffffffffffffffffffffffff1602179055508173ffffffffffffffffffffffffffffffffffffffff168173ffffffffffffffffffffffffffffffffffffffff167f8be0079c531659141344cd1fd0a4f28419497f9722a3daafe3b4186f6b6457e060405160405180910390a35050565b6000815190506200026a81620002e5565b92915050565b600080604083850312156200028457600080fd5b6000620002948582860162000259565b9250506020620002a78582860162000259565b9150509250929050565b6000620002be82620002c5565b9050919050565b600073ffffffffffffffffffffffffffffffffffffffff82169050919050565b620002f081620002b1565b8114620002fc57600080fd5b50565b613125806200030f6000396000f3fe60806040526004361061011f5760003560e01c80636e20b075116100a05780638da5cb5b116100645780638da5cb5b146103915780639d76ea58146103bc578063d7c81b55146103e7578063f2fde38b14610412578063f9c4f22c1461043b5761011f565b80636e20b075146102c0578063715018a6146102fd578063748747e6146103145780637afe48151461033d5780638b7afe2e146103665761011f565b8063478f59cb116100e7578063478f59cb146101d857806349979cf3146102035780634aeaac821461022e5780635bf8633a146102575780636e04ff0d146102825761011f565b80630ced86371461012457806319d8ac611461012e578063201469a814610159578063266264da146101845780634585e33b146101af575b600080fd5b61012c610466565b005b34801561013a57600080fd5b5061014361063a565b6040516101509190612b14565b60405180910390f35b34801561016557600080fd5b5061016e610640565b60405161017b9190612b14565b60405180910390f35b34801561019057600080fd5b50610199610646565b6040516101a69190612b14565b60405180910390f35b3480156101bb57600080fd5b506101d660048036038101906101d191906126cc565b61064b565b005b3480156101e457600080fd5b506101ed610b7b565b6040516101fa9190612b14565b60405180910390f35b34801561020f57600080fd5b50610218610b80565b6040516102259190612a17565b60405180910390f35b34801561023a57600080fd5b5061025560048036038101906102509190612711565b610b93565b005b34801561026357600080fd5b5061026c610f40565b604051610279919061296c565b60405180910390f35b34801561028e57600080fd5b506102a960048036038101906102a491906126cc565b610f66565b6040516102b79291906129e7565b60405180910390f35b3480156102cc57600080fd5b506102e760048036038101906102e29190612711565b61129f565b6040516102f49190612af2565b60405180910390f35b34801561030957600080fd5b506103126113b0565b005b34801561032057600080fd5b5061033b60048036038101906103369190612639565b611438565b005b34801561034957600080fd5b50610364600480360381019061035f9190612639565b61150c565b005b34801561037257600080fd5b5061037b611685565b6040516103889190612b14565b60405180910390f35b34801561039d57600080fd5b506103a661168b565b6040516103b3919061296c565b60405180910390f35b3480156103c857600080fd5b506103d16116b4565b6040516103de919061296c565b60405180910390f35b3480156103f357600080fd5b506103fc6116da565b6040516104099190612b14565b60405180910390f35b34801561041e57600080fd5b5061043960048036038101906104349190612639565b6116e0565b005b34801561044757600080fd5b506104506117d8565b60405161045d9190612b14565b60405180910390f35b6000600560009054906101000a900473ffffffffffffffffffffffffffffffffffffffff1690508073ffffffffffffffffffffffffffffffffffffffff1663fa695a97336040518263ffffffff1660e01b81526004016104c6919061296c565b600060405180830381600087803b1580156104e057600080fd5b505af11580156104f4573d6000803e3d6000fd5b505050506000600460009054906101000a900473ffffffffffffffffffffffffffffffffffffffff1690508073ffffffffffffffffffffffffffffffffffffffff1663a9059cbb338373ffffffffffffffffffffffffffffffffffffffff1663907af6c06040518163ffffffff1660e01b815260040160206040518083038186803b15801561058257600080fd5b505afa158015610596573d6000803e3d6000fd5b505050506040513d601f19601f820116820180604052508101906105ba919061273a565b600a6105c69190612c3c565b6040518363ffffffff1660e01b81526004016105e39291906129be565b602060405180830381600087803b1580156105fd57600080fd5b505af1158015610611573d6000803e3d6000fd5b505050506040513d601f19601f8201168201806040525081019061063591906126a3565b505050565b60075481565b60085481565b603c81565b6000429050620151806008546106619190612be6565b4211156106915762015180816106779190612de4565b816106829190612c96565b6008819055506106906117dd565b5b600060038111156106cb577f4e487b7100000000000000000000000000000000000000000000000000000000600052602160045260246000fd5b600960009054906101000a900460ff166003811115610713577f4e487b7100000000000000000000000000000000000000000000000000000000600052602160045260246000fd5b14156107b757610721611a2e565b806007819055506001600960006101000a81548160ff02191690836003811115610774577f4e487b7100000000000000000000000000000000000000000000000000000000600052602160045260246000fd5b02179055507fa0b7f6f22bb4f69adc52dd16ffe2a964ab8b577be274247fa9a1547b03ce3e556006546040516107aa9190612b14565b60405180910390a1610b76565b600160038111156107f1577f4e487b7100000000000000000000000000000000000000000000000000000000600052602160045260246000fd5b600960009054906101000a900460ff166003811115610839577f4e487b7100000000000000000000000000000000000000000000000000000000600052602160045260246000fd5b14156108fd57610849601e611c4d565b80156108595750610858611c67565b5b156108f857610866611c8e565b806007819055506002600960006101000a81548160ff021916908360038111156108b9577f4e487b7100000000000000000000000000000000000000000000000000000000600052602160045260246000fd5b02179055507f50ad08f58a27f2851d7e3a1b3a6a46b290f2ce677e99642d30ff639721e777906006546040516108ef9190612b14565b60405180910390a15b610b75565b60026003811115610937577f4e487b7100000000000000000000000000000000000000000000000000000000600052602160045260246000fd5b600960009054906101000a900460ff16600381111561097f577f4e487b7100000000000000000000000000000000000000000000000000000000600052602160045260246000fd5b1415610a425761098f603c611c4d565b8061099e575061099d611fbb565b5b15610a3d576109ab61202a565b806007819055506003600960006101000a81548160ff021916908360038111156109fe577f4e487b7100000000000000000000000000000000000000000000000000000000600052602160045260246000fd5b02179055507f6543ec12c6e53f26532beb5289ef5732dcd77c2e9e9921ae42b695905f5e84c0600654604051610a349190612b14565b60405180910390a15b610b74565b600380811115610a7b577f4e487b7100000000000000000000000000000000000000000000000000000000600052602160045260246000fd5b600960009054906101000a900460ff166003811115610ac3577f4e487b7100000000000000000000000000000000000000000000000000000000600052602160045260246000fd5b1415610b7357610ad3600f611c4d565b15610b7257610ae0611a2e565b806007819055506001600960006101000a81548160ff02191690836003811115610b33577f4e487b7100000000000000000000000000000000000000000000000000000000600052602160045260246000fd5b02179055507f994bf845d204f6a7201202025f8f9ca46641b9bab2f1ef86a6681d8f4353a2a3600654604051610b699190612b14565b60405180910390a15b5b5b5b5b505050565b601e81565b600960009054906101000a900460ff1681565b6000600560009054906101000a900473ffffffffffffffffffffffffffffffffffffffff16905060008173ffffffffffffffffffffffffffffffffffffffff166370a08231336040518263ffffffff1660e01b8152600401610bf5919061296c565b60206040518083038186803b158015610c0d57600080fd5b505afa158015610c21573d6000803e3d6000fd5b505050506040513d601f19601f82011682018060405250810190610c45919061273a565b11610c85576040517f08c379a0000000000000000000000000000000000000000000000000000000008152600401610c7c90612a52565b60405180910390fd5b60016003811115610cbf577f4e487b7100000000000000000000000000000000000000000000000000000000600052602160045260246000fd5b600960009054906101000a900460ff166003811115610d07577f4e487b7100000000000000000000000000000000000000000000000000000000600052602160045260246000fd5b14610d47576040517f08c379a0000000000000000000000000000000000000000000000000000000008152600401610d3e90612ab2565b60405180910390fd5b6000600a60006006548152602001908152602001600020600001805480602002602001604051908101604052809291908181526020018280548015610de157602002820191906000526020600020905b8160009054906101000a900473ffffffffffffffffffffffffffffffffffffffff1673ffffffffffffffffffffffffffffffffffffffff1681526020019060010190808311610d97575b505050505090506000805b8251811015610e8157828181518110610e2e577f4e487b7100000000000000000000000000000000000000000000000000000000600052603260045260246000fd5b602002602001015173ffffffffffffffffffffffffffffffffffffffff163373ffffffffffffffffffffffffffffffffffffffff161415610e6e57600191505b8080610e7990612d9b565b915050610dec565b5080610f3a57600a60006006548152602001908152602001600020600001339080600181540180825580915050600190039060005260206000200160009091909190916101000a81548173ffffffffffffffffffffffffffffffffffffffff021916908373ffffffffffffffffffffffffffffffffffffffff1602179055507f3cdcff039830bc8941208e97e0bea06dc34c3348c6b6a002c6d0f2235dd0250d3385604051610f319291906129be565b60405180910390a15b50505050565b600560009054906101000a900473ffffffffffffffffffffffffffffffffffffffff1681565b6000606062015180600854610f7b9190612be6565b421115610f9d5760016040518060200160405280600081525091509150611298565b60006003811115610fd7577f4e487b7100000000000000000000000000000000000000000000000000000000600052602160045260246000fd5b600960009054906101000a900460ff16600381111561101f577f4e487b7100000000000000000000000000000000000000000000000000000000600052602160045260246000fd5b14156110405760016040518060200160405280600081525091509150611298565b6001600381111561107a577f4e487b7100000000000000000000000000000000000000000000000000000000600052602160045260246000fd5b600960009054906101000a900460ff1660038111156110c2577f4e487b7100000000000000000000000000000000000000000000000000000000600052602160045260246000fd5b1415611107576110d2601e611c4d565b80156110e257506110e1611c67565b5b156111025760016040518060200160405280600081525091509150611298565b611281565b60026003811115611141577f4e487b7100000000000000000000000000000000000000000000000000000000600052602160045260246000fd5b600960009054906101000a900460ff166003811115611189577f4e487b7100000000000000000000000000000000000000000000000000000000600052602160045260246000fd5b14156111cd57611199603c611c4d565b806111a857506111a7611fbb565b5b156111c85760016040518060200160405280600081525091509150611298565b611280565b600380811115611206577f4e487b7100000000000000000000000000000000000000000000000000000000600052602160045260246000fd5b600960009054906101000a900460ff16600381111561124e577f4e487b7100000000000000000000000000000000000000000000000000000000600052602160045260246000fd5b141561127f5761125e600f611c4d565b1561127e5760016040518060200160405280600081525091509150611298565b5b5b5b600060405180602001604052806000815250915091505b9250929050565b6112a7612419565b600a60008381526020019081526020016000206040518060400160405290816000820180548060200260200160405190810160405280929190818152602001828054801561134a57602002820191906000526020600020905b8160009054906101000a900473ffffffffffffffffffffffffffffffffffffffff1673ffffffffffffffffffffffffffffffffffffffff1681526020019060010190808311611300575b505050505081526020016001820160009054906101000a900473ffffffffffffffffffffffffffffffffffffffff1673ffffffffffffffffffffffffffffffffffffffff1673ffffffffffffffffffffffffffffffffffffffff16815250509050919050565b6113b861234d565b73ffffffffffffffffffffffffffffffffffffffff166113d661168b565b73ffffffffffffffffffffffffffffffffffffffff161461142c576040517f08c379a000000000000000000000000000000000000000000000000000000000815260040161142390612a92565b60405180910390fd5b6114366000612355565b565b600160009054906101000a900473ffffffffffffffffffffffffffffffffffffffff1673ffffffffffffffffffffffffffffffffffffffff163373ffffffffffffffffffffffffffffffffffffffff16146114c8576040517f08c379a00000000000000000000000000000000000000000000000000000000081526004016114bf90612ad2565b60405180910390fd5b80600260006101000a81548173ffffffffffffffffffffffffffffffffffffffff021916908373ffffffffffffffffffffffffffffffffffffffff16021790555050565b600260009054906101000a900473ffffffffffffffffffffffffffffffffffffffff1673ffffffffffffffffffffffffffffffffffffffff163373ffffffffffffffffffffffffffffffffffffffff1614806115b55750600160009054906101000a900473ffffffffffffffffffffffffffffffffffffffff1673ffffffffffffffffffffffffffffffffffffffff163373ffffffffffffffffffffffffffffffffffffffff16145b6115f4576040517f08c379a00000000000000000000000000000000000000000000000000000000081526004016115eb90612a72565b60405180910390fd5b80600a6000600654815260200190815260200160002060010160006101000a81548173ffffffffffffffffffffffffffffffffffffffff021916908373ffffffffffffffffffffffffffffffffffffffff1602179055507f970f935ee01502df35da11db45c29bdd97d8f41d5a0640c1dc3bd96c67f979878160405161167a919061296c565b60405180910390a150565b60035481565b60008060009054906101000a900473ffffffffffffffffffffffffffffffffffffffff16905090565b600460009054906101000a900473ffffffffffffffffffffffffffffffffffffffff1681565b60065481565b6116e861234d565b73ffffffffffffffffffffffffffffffffffffffff1661170661168b565b73ffffffffffffffffffffffffffffffffffffffff161461175c576040517f08c379a000000000000000000000000000000000000000000000000000000000815260040161175390612a92565b60405180910390fd5b600073ffffffffffffffffffffffffffffffffffffffff168173ffffffffffffffffffffffffffffffffffffffff1614156117cc576040517f08c379a00000000000000000000000000000000000000000000000000000000081526004016117c390612a32565b60405180910390fd5b6117d581612355565b50565b600f81565b6000600460009054906101000a900473ffffffffffffffffffffffffffffffffffffffff1690506000600560009054906101000a900473ffffffffffffffffffffffffffffffffffffffff16905060008173ffffffffffffffffffffffffffffffffffffffff1663876b15666040518163ffffffff1660e01b815260040160006040518083038186803b15801561187357600080fd5b505afa158015611887573d6000803e3d6000fd5b505050506040513d6000823e3d601f19601f820116820180604052508101906118b09190612662565b905060005b8151811015611a28578373ffffffffffffffffffffffffffffffffffffffff1663a9059cbb838381518110611913577f4e487b7100000000000000000000000000000000000000000000000000000000600052603260045260246000fd5b60200260200101518673ffffffffffffffffffffffffffffffffffffffff1663907af6c06040518163ffffffff1660e01b815260040160206040518083038186803b15801561196157600080fd5b505afa158015611975573d6000803e3d6000fd5b505050506040513d601f19601f82011682018060405250810190611999919061273a565b600a6119a59190612c3c565b6040518363ffffffff1660e01b81526004016119c29291906129be565b602060405180830381600087803b1580156119dc57600080fd5b505af11580156119f0573d6000803e3d6000fd5b505050506040513d601f19601f82011682018060405250810190611a1491906126a3565b508080611a2090612d9b565b9150506118b5565b50505050565b600260009054906101000a900473ffffffffffffffffffffffffffffffffffffffff1673ffffffffffffffffffffffffffffffffffffffff163373ffffffffffffffffffffffffffffffffffffffff161480611ad75750600160009054906101000a900473ffffffffffffffffffffffffffffffffffffffff1673ffffffffffffffffffffffffffffffffffffffff163373ffffffffffffffffffffffffffffffffffffffff16145b611b16576040517f08c379a0000000000000000000000000000000000000000000000000000000008152600401611b0d90612a72565b60405180910390fd5b60066000815480929190611b2990612d9b565b919050555060006040518060400160405280600067ffffffffffffffff811115611b7c577f4e487b7100000000000000000000000000000000000000000000000000000000600052604160045260246000fd5b604051908082528060200260200182016040528015611baa5781602001602082028036833780820191505090505b508152602001600073ffffffffffffffffffffffffffffffffffffffff16815250905080600a600060065481526020019081526020016000206000820151816000019080519060200190611bff929190612449565b5060208201518160010160006101000a81548173ffffffffffffffffffffffffffffffffffffffff021916908373ffffffffffffffffffffffffffffffffffffffff16021790555090505050565b60008160075442611c5e9190612c96565b10159050919050565b60006002600a60006006548152602001908152602001600020600001805490501015905090565b600260009054906101000a900473ffffffffffffffffffffffffffffffffffffffff1673ffffffffffffffffffffffffffffffffffffffff163373ffffffffffffffffffffffffffffffffffffffff161480611d375750600160009054906101000a900473ffffffffffffffffffffffffffffffffffffffff1673ffffffffffffffffffffffffffffffffffffffff163373ffffffffffffffffffffffffffffffffffffffff16145b611d76576040517f08c379a0000000000000000000000000000000000000000000000000000000008152600401611d6d90612a72565b60405180910390fd5b6000600460009054906101000a900473ffffffffffffffffffffffffffffffffffffffff1690506000600a60006006548152602001908152602001600020600001805480602002602001604051908101604052809291908181526020018280548015611e3757602002820191906000526020600020905b8160009054906101000a900473ffffffffffffffffffffffffffffffffffffffff1673ffffffffffffffffffffffffffffffffffffffff1681526020019060010190808311611ded575b5050505050905060005b8151811015611fb6578273ffffffffffffffffffffffffffffffffffffffff166323b872dd838381518110611e9f577f4e487b7100000000000000000000000000000000000000000000000000000000600052603260045260246000fd5b6020026020010151308673ffffffffffffffffffffffffffffffffffffffff1663907af6c06040518163ffffffff1660e01b815260040160206040518083038186803b158015611eee57600080fd5b505afa158015611f02573d6000803e3d6000fd5b505050506040513d601f19601f82011682018060405250810190611f26919061273a565b6001611f329190612c3c565b6040518463ffffffff1660e01b8152600401611f5093929190612987565b602060405180830381600087803b158015611f6a57600080fd5b505af1158015611f7e573d6000803e3d6000fd5b505050506040513d601f19601f82011682018060405250810190611fa291906126a3565b508080611fae90612d9b565b915050611e41565b505050565b60008073ffffffffffffffffffffffffffffffffffffffff16600a6000600654815260200190815260200160002060010160009054906101000a900473ffffffffffffffffffffffffffffffffffffffff1673ffffffffffffffffffffffffffffffffffffffff161415905090565b600260009054906101000a900473ffffffffffffffffffffffffffffffffffffffff1673ffffffffffffffffffffffffffffffffffffffff163373ffffffffffffffffffffffffffffffffffffffff1614806120d35750600160009054906101000a900473ffffffffffffffffffffffffffffffffffffffff1673ffffffffffffffffffffffffffffffffffffffff163373ffffffffffffffffffffffffffffffffffffffff16145b612112576040517f08c379a000000000000000000000000000000000000000000000000000000000815260040161210990612a72565b60405180910390fd5b61211a611fbb565b1561234b576000600460009054906101000a900473ffffffffffffffffffffffffffffffffffffffff1690506000600a600060065481526020019081526020016000206000018054806020026020016040519081016040528092919081815260200182805480156121e057602002820191906000526020600020905b8160009054906101000a900473ffffffffffffffffffffffffffffffffffffffff1673ffffffffffffffffffffffffffffffffffffffff1681526020019060010190808311612196575b505050505090506000815190506000600a6000600654815260200190815260200160002060010160009054906101000a900473ffffffffffffffffffffffffffffffffffffffff16905060008473ffffffffffffffffffffffffffffffffffffffff1663907af6c06040518163ffffffff1660e01b815260040160206040518083038186803b15801561227257600080fd5b505afa158015612286573d6000803e3d6000fd5b505050506040513d601f19601f820116820180604052508101906122aa919061273a565b836122b59190612c3c565b90508473ffffffffffffffffffffffffffffffffffffffff1663a9059cbb83836040518363ffffffff1660e01b81526004016122f29291906129be565b602060405180830381600087803b15801561230c57600080fd5b505af1158015612320573d6000803e3d6000fd5b505050506040513d601f19601f8201168201806040525081019061234491906126a3565b5050505050505b565b600033905090565b60008060009054906101000a900473ffffffffffffffffffffffffffffffffffffffff169050816000806101000a81548173ffffffffffffffffffffffffffffffffffffffff021916908373ffffffffffffffffffffffffffffffffffffffff1602179055508173ffffffffffffffffffffffffffffffffffffffff168173ffffffffffffffffffffffffffffffffffffffff167f8be0079c531659141344cd1fd0a4f28419497f9722a3daafe3b4186f6b6457e060405160405180910390a35050565b604051806040016040528060608152602001600073ffffffffffffffffffffffffffffffffffffffff1681525090565b8280548282559060005260206000209081019282156124c2579160200282015b828111156124c15782518260006101000a81548173ffffffffffffffffffffffffffffffffffffffff021916908373ffffffffffffffffffffffffffffffffffffffff16021790555091602001919060010190612469565b5b5090506124cf91906124d3565b5090565b5b808211156124ec5760008160009055506001016124d4565b5090565b60006125036124fe84612b54565b612b2f565b9050808382526020820190508285602086028201111561252257600080fd5b60005b8581101561255257816125388882612571565b845260208401935060208301925050600181019050612525565b5050509392505050565b60008135905061256b816130aa565b92915050565b600081519050612580816130aa565b92915050565b600082601f83011261259757600080fd5b81516125a78482602086016124f0565b91505092915050565b6000815190506125bf816130c1565b92915050565b60008083601f8401126125d757600080fd5b8235905067ffffffffffffffff8111156125f057600080fd5b60208301915083600182028301111561260857600080fd5b9250929050565b60008135905061261e816130d8565b92915050565b600081519050612633816130d8565b92915050565b60006020828403121561264b57600080fd5b60006126598482850161255c565b91505092915050565b60006020828403121561267457600080fd5b600082015167ffffffffffffffff81111561268e57600080fd5b61269a84828501612586565b91505092915050565b6000602082840312156126b557600080fd5b60006126c3848285016125b0565b91505092915050565b600080602083850312156126df57600080fd5b600083013567ffffffffffffffff8111156126f957600080fd5b612705858286016125c5565b92509250509250929050565b60006020828403121561272357600080fd5b60006127318482850161260f565b91505092915050565b60006020828403121561274c57600080fd5b600061275a84828501612624565b91505092915050565b600061276f838361277b565b60208301905092915050565b61278481612cca565b82525050565b61279381612cca565b82525050565b60006127a482612b90565b6127ae8185612bb3565b93506127b983612b80565b8060005b838110156127ea5781516127d18882612763565b97506127dc83612ba6565b9250506001810190506127bd565b5085935050505092915050565b61280081612cdc565b82525050565b600061281182612b9b565b61281b8185612bc4565b935061282b818560208601612d37565b61283481612ed1565b840191505092915050565b61284881612d25565b82525050565b600061285b602683612bd5565b915061286682612ee2565b604082019050919050565b600061287e602283612bd5565b915061288982612f31565b604082019050919050565b60006128a1603483612bd5565b91506128ac82612f80565b604082019050919050565b60006128c4602083612bd5565b91506128cf82612fcf565b602082019050919050565b60006128e7603c83612bd5565b91506128f282612ff8565b604082019050919050565b600061290a602a83612bd5565b915061291582613047565b604082019050919050565b6000604083016000830151848203600086015261293d8282612799565b9150506020830151612952602086018261277b565b508091505092915050565b61296681612d1b565b82525050565b6000602082019050612981600083018461278a565b92915050565b600060608201905061299c600083018661278a565b6129a9602083018561278a565b6129b6604083018461295d565b949350505050565b60006040820190506129d3600083018561278a565b6129e0602083018461295d565b9392505050565b60006040820190506129fc60008301856127f7565b8181036020830152612a0e8184612806565b90509392505050565b6000602082019050612a2c600083018461283f565b92915050565b60006020820190508181036000830152612a4b8161284e565b9050919050565b60006020820190508181036000830152612a6b81612871565b9050919050565b60006020820190508181036000830152612a8b81612894565b9050919050565b60006020820190508181036000830152612aab816128b7565b9050919050565b60006020820190508181036000830152612acb816128da565b9050919050565b60006020820190508181036000830152612aeb816128fd565b9050919050565b60006020820190508181036000830152612b0c8184612920565b905092915050565b6000602082019050612b29600083018461295d565b92915050565b6000612b39612b4a565b9050612b458282612d6a565b919050565b6000604051905090565b600067ffffffffffffffff821115612b6f57612b6e612ea2565b5b602082029050602081019050919050565b6000819050602082019050919050565b600081519050919050565b600081519050919050565b6000602082019050919050565b600082825260208201905092915050565b600082825260208201905092915050565b600082825260208201905092915050565b6000612bf182612d1b565b9150612bfc83612d1b565b9250827fffffffffffffffffffffffffffffffffffffffffffffffffffffffffffffffff03821115612c3157612c30612e15565b5b828201905092915050565b6000612c4782612d1b565b9150612c5283612d1b565b9250817fffffffffffffffffffffffffffffffffffffffffffffffffffffffffffffffff0483118215151615612c8b57612c8a612e15565b5b828202905092915050565b6000612ca182612d1b565b9150612cac83612d1b565b925082821015612cbf57612cbe612e15565b5b828203905092915050565b6000612cd582612cfb565b9050919050565b60008115159050919050565b6000819050612cf682613096565b919050565b600073ffffffffffffffffffffffffffffffffffffffff82169050919050565b6000819050919050565b6000612d3082612ce8565b9050919050565b60005b83811015612d55578082015181840152602081019050612d3a565b83811115612d64576000848401525b50505050565b612d7382612ed1565b810181811067ffffffffffffffff82111715612d9257612d91612ea2565b5b80604052505050565b6000612da682612d1b565b91507fffffffffffffffffffffffffffffffffffffffffffffffffffffffffffffffff821415612dd957612dd8612e15565b5b600182019050919050565b6000612def82612d1b565b9150612dfa83612d1b565b925082612e0a57612e09612e44565b5b828206905092915050565b7f4e487b7100000000000000000000000000000000000000000000000000000000600052601160045260246000fd5b7f4e487b7100000000000000000000000000000000000000000000000000000000600052601260045260246000fd5b7f4e487b7100000000000000000000000000000000000000000000000000000000600052602160045260246000fd5b7f4e487b7100000000000000000000000000000000000000000000000000000000600052604160045260246000fd5b6000601f19601f8301169050919050565b7f4f776e61626c653a206e6577206f776e657220697320746865207a65726f206160008201527f6464726573730000000000000000000000000000000000000000000000000000602082015250565b7f50324547616d653a204d757374206265204e4654206f776e657220746f20706c60008201527f6179000000000000000000000000000000000000000000000000000000000000602082015250565b7f50324547616d653a2041646d696e206f72204b65657065722063616e2070657260008201527f666f726d2074686973206f7065726174696f6e2e000000000000000000000000602082015250565b7f4f776e61626c653a2063616c6c6572206973206e6f7420746865206f776e6572600082015250565b7f50324547616d653a20546869732067616d652073657373696f6e20697320656960008201527f746865722072756e6e696e67206f72206861732066696e697368656400000000602082015250565b7f50324547616d653a2041646d696e2063616e20706572666f726d20746869732060008201527f6f7065726174696f6e2e00000000000000000000000000000000000000000000602082015250565b600481106130a7576130a6612e73565b5b50565b6130b381612cca565b81146130be57600080fd5b50565b6130ca81612cdc565b81146130d557600080fd5b50565b6130e181612d1b565b81146130ec57600080fd5b5056fea26469706673582212201f6c4713fd9be8002bb77891ed95fa0f127150fa39ee5f6a970854d1a1954b6364736f6c63430008040033",
  "linkReferences": {},
  "deployedLinkReferences": {}
}