{
  "_format": "hh-sol-artifact-1",
  "contractName": "P2EGame",
  "sourceName": "contracts/P2EGame.sol",
  "abi": [
    {
      "inputs": [
        {
          "internalType": "address",
          "name": "_tokenAddress",
          "type": "address"
        },
        {
          "internalType": "address",
          "name": "_nftAddress",
          "type": "address"
        }
      ],
      "stateMutability": "nonpayable",
      "type": "constructor"
    },
    {
      "anonymous": false,
      "inputs": [
        {
          "indexed": false,
          "internalType": "uint256",
          "name": "id",
          "type": "uint256"
        }
      ],
      "name": "GameFinished",
      "type": "event"
    },
    {
      "anonymous": false,
      "inputs": [
        {
          "indexed": false,
          "internalType": "uint256",
          "name": "id",
          "type": "uint256"
        }
      ],
      "name": "GameSettled",
      "type": "event"
    },
    {
      "anonymous": false,
      "inputs": [
        {
          "indexed": false,
          "internalType": "uint256",
          "name": "id",
          "type": "uint256"
        }
      ],
      "name": "GameStarted",
      "type": "event"
    },
    {
      "anonymous": false,
      "inputs": [
        {
          "indexed": false,
          "internalType": "uint256",
          "name": "id",
          "type": "uint256"
        }
      ],
      "name": "NewGame",
      "type": "event"
    },
    {
      "anonymous": false,
      "inputs": [
        {
          "indexed": true,
          "internalType": "address",
          "name": "previousOwner",
          "type": "address"
        },
        {
          "indexed": true,
          "internalType": "address",
          "name": "newOwner",
          "type": "address"
        }
      ],
      "name": "OwnershipTransferred",
      "type": "event"
    },
    {
      "anonymous": false,
      "inputs": [
        {
          "indexed": false,
          "internalType": "address",
          "name": "playerAddress",
          "type": "address"
        },
        {
          "indexed": false,
          "internalType": "string",
          "name": "clientId",
          "type": "string"
        }
      ],
      "name": "PlayerJoinedGame",
      "type": "event"
    },
    {
      "anonymous": false,
      "inputs": [
        {
          "indexed": false,
          "internalType": "address",
          "name": "playerAddress",
          "type": "address"
        }
      ],
      "name": "PlayerWon",
      "type": "event"
    },
    {
      "inputs": [
        {
          "internalType": "string",
          "name": "clientId",
          "type": "string"
        }
      ],
      "name": "addPlayerToGameSession",
      "outputs": [],
      "stateMutability": "nonpayable",
      "type": "function"
    },
    {
      "inputs": [
        {
          "internalType": "bytes",
          "name": "",
          "type": "bytes"
        }
      ],
      "name": "checkUpkeep",
      "outputs": [
        {
          "internalType": "bool",
          "name": "upkeepNeeded",
          "type": "bool"
        },
        {
          "internalType": "bytes",
          "name": "",
          "type": "bytes"
        }
      ],
      "stateMutability": "view",
      "type": "function"
    },
    {
      "inputs": [],
      "name": "contractBalance",
      "outputs": [
        {
          "internalType": "uint256",
          "name": "",
          "type": "uint256"
        }
      ],
      "stateMutability": "view",
      "type": "function"
    },
    {
      "inputs": [],
      "name": "gameId",
      "outputs": [
        {
          "internalType": "uint256",
          "name": "",
          "type": "uint256"
        }
      ],
      "stateMutability": "view",
      "type": "function"
    },
    {
      "inputs": [],
      "name": "gameLengthSeconds",
      "outputs": [
        {
          "internalType": "uint256",
          "name": "",
          "type": "uint256"
        }
      ],
      "stateMutability": "view",
      "type": "function"
    },
    {
      "inputs": [],
      "name": "gameSessionState",
      "outputs": [
        {
          "internalType": "enum P2EGame.GameSessionState",
          "name": "",
          "type": "uint8"
        }
      ],
      "stateMutability": "view",
      "type": "function"
    },
    {
      "inputs": [
        {
          "internalType": "uint256",
          "name": "_gameId",
          "type": "uint256"
        }
      ],
      "name": "getGameSessions",
      "outputs": [
        {
          "components": [
            {
              "internalType": "address[]",
              "name": "players",
              "type": "address[]"
            },
            {
              "internalType": "address",
              "name": "winner",
              "type": "address"
            }
          ],
          "internalType": "struct P2EGame.GameSession",
          "name": "",
          "type": "tuple"
        }
      ],
      "stateMutability": "view",
      "type": "function"
    },
    {
      "inputs": [],
      "name": "inLobbySeconds",
      "outputs": [
        {
          "internalType": "uint256",
          "name": "",
          "type": "uint256"
        }
      ],
      "stateMutability": "view",
      "type": "function"
    },
    {
      "inputs": [],
      "name": "lastTimestamp",
      "outputs": [
        {
          "internalType": "uint256",
          "name": "",
          "type": "uint256"
        }
      ],
      "stateMutability": "view",
      "type": "function"
    },
    {
      "inputs": [],
      "name": "lastYieldTimestamp",
      "outputs": [
        {
          "internalType": "uint256",
          "name": "",
          "type": "uint256"
        }
      ],
      "stateMutability": "view",
      "type": "function"
    },
    {
      "inputs": [],
      "name": "mintOne",
      "outputs": [],
      "stateMutability": "payable",
      "type": "function"
    },
    {
      "inputs": [],
      "name": "nftAddress",
      "outputs": [
        {
          "internalType": "address",
          "name": "",
          "type": "address"
        }
      ],
      "stateMutability": "view",
      "type": "function"
    },
    {
      "inputs": [],
      "name": "owner",
      "outputs": [
        {
          "internalType": "address",
          "name": "",
          "type": "address"
        }
      ],
      "stateMutability": "view",
      "type": "function"
    },
    {
      "inputs": [
        {
          "internalType": "bytes",
          "name": "",
          "type": "bytes"
        }
      ],
      "name": "performUpkeep",
      "outputs": [],
      "stateMutability": "nonpayable",
      "type": "function"
    },
    {
      "inputs": [
        {
          "internalType": "address",
          "name": "_player",
          "type": "address"
        }
      ],
      "name": "playerWon",
      "outputs": [],
      "stateMutability": "nonpayable",
      "type": "function"
    },
    {
      "inputs": [],
      "name": "renounceOwnership",
      "outputs": [],
      "stateMutability": "nonpayable",
      "type": "function"
    },
    {
      "inputs": [
        {
          "internalType": "address",
          "name": "_keeper",
          "type": "address"
        }
      ],
      "name": "setKeeper",
      "outputs": [],
      "stateMutability": "nonpayable",
      "type": "function"
    },
    {
      "inputs": [],
      "name": "showScoresSeconds",
      "outputs": [
        {
          "internalType": "uint256",
          "name": "",
          "type": "uint256"
        }
      ],
      "stateMutability": "view",
      "type": "function"
    },
    {
      "inputs": [],
      "name": "tokenAddress",
      "outputs": [
        {
          "internalType": "address",
          "name": "",
          "type": "address"
        }
      ],
      "stateMutability": "view",
      "type": "function"
    },
    {
      "inputs": [
        {
          "internalType": "address",
          "name": "newOwner",
          "type": "address"
        }
      ],
      "name": "transferOwnership",
      "outputs": [],
      "stateMutability": "nonpayable",
      "type": "function"
    }
  ],
  "bytecode": "0x6080604052600060075560006008553480156200001b57600080fd5b506040516200359138038062003591833981810160405281019062000041919062000270565b62000061620000556200018d60201b60201c565b6200019560201b60201c565b81600460006101000a81548173ffffffffffffffffffffffffffffffffffffffff021916908373ffffffffffffffffffffffffffffffffffffffff16021790555080600560006101000a81548173ffffffffffffffffffffffffffffffffffffffff021916908373ffffffffffffffffffffffffffffffffffffffff16021790555033600160006101000a81548173ffffffffffffffffffffffffffffffffffffffff021916908373ffffffffffffffffffffffffffffffffffffffff16021790555060006006819055506000600960006101000a81548160ff0219169083600381111562000179577f4e487b7100000000000000000000000000000000000000000000000000000000600052602160045260246000fd5b0217905550426008819055505050620002ff565b600033905090565b60008060009054906101000a900473ffffffffffffffffffffffffffffffffffffffff169050816000806101000a81548173ffffffffffffffffffffffffffffffffffffffff021916908373ffffffffffffffffffffffffffffffffffffffff1602179055508173ffffffffffffffffffffffffffffffffffffffff168173ffffffffffffffffffffffffffffffffffffffff167f8be0079c531659141344cd1fd0a4f28419497f9722a3daafe3b4186f6b6457e060405160405180910390a35050565b6000815190506200026a81620002e5565b92915050565b600080604083850312156200028457600080fd5b6000620002948582860162000259565b9250506020620002a78582860162000259565b9150509250929050565b6000620002be82620002c5565b9050919050565b600073ffffffffffffffffffffffffffffffffffffffff82169050919050565b620002f081620002b1565b8114620002fc57600080fd5b50565b613282806200030f6000396000f3fe60806040526004361061011f5760003560e01c8063715018a6116100a05780638da5cb5b116100645780638da5cb5b146103915780639d76ea58146103bc578063d7c81b55146103e7578063f2fde38b14610412578063f9c4f22c1461043b5761011f565b8063715018a6146102d4578063748747e6146102eb57806375b3e7e1146103145780637afe48151461033d5780638b7afe2e146103665761011f565b8063478f59cb116100e7578063478f59cb146101d857806349979cf3146102035780635bf8633a1461022e5780636e04ff0d146102595780636e20b075146102975761011f565b80630ced86371461012457806319d8ac611461012e578063201469a814610159578063266264da146101845780634585e33b146101af575b600080fd5b61012c610466565b005b34801561013a57600080fd5b5061014361063a565b6040516101509190612c26565b60405180910390f35b34801561016557600080fd5b5061016e610640565b60405161017b9190612c26565b60405180910390f35b34801561019057600080fd5b50610199610646565b6040516101a69190612c26565b60405180910390f35b3480156101bb57600080fd5b506101d660048036038101906101d19190612734565b61064b565b005b3480156101e457600080fd5b506101ed610b7b565b6040516101fa9190612c26565b60405180910390f35b34801561020f57600080fd5b50610218610b80565b6040516102259190612b29565b60405180910390f35b34801561023a57600080fd5b50610243610b93565b6040516102509190612a4e565b60405180910390f35b34801561026557600080fd5b50610280600480360381019061027b9190612734565b610bb9565b60405161028e929190612af9565b60405180910390f35b3480156102a357600080fd5b506102be60048036038101906102b991906127ba565b610ef2565b6040516102cb9190612c04565b60405180910390f35b3480156102e057600080fd5b506102e9611003565b005b3480156102f757600080fd5b50610312600480360381019061030d91906126a1565b61108b565b005b34801561032057600080fd5b5061033b60048036038101906103369190612779565b61115f565b005b34801561034957600080fd5b50610364600480360381019061035f91906126a1565b61150c565b005b34801561037257600080fd5b5061037b611685565b6040516103889190612c26565b60405180910390f35b34801561039d57600080fd5b506103a661168b565b6040516103b39190612a4e565b60405180910390f35b3480156103c857600080fd5b506103d16116b4565b6040516103de9190612a4e565b60405180910390f35b3480156103f357600080fd5b506103fc6116da565b6040516104099190612c26565b60405180910390f35b34801561041e57600080fd5b50610439600480360381019061043491906126a1565b6116e0565b005b34801561044757600080fd5b506104506117d8565b60405161045d9190612c26565b60405180910390f35b6000600560009054906101000a900473ffffffffffffffffffffffffffffffffffffffff1690508073ffffffffffffffffffffffffffffffffffffffff1663fa695a97336040518263ffffffff1660e01b81526004016104c69190612a4e565b600060405180830381600087803b1580156104e057600080fd5b505af11580156104f4573d6000803e3d6000fd5b505050506000600460009054906101000a900473ffffffffffffffffffffffffffffffffffffffff1690508073ffffffffffffffffffffffffffffffffffffffff1663a9059cbb338373ffffffffffffffffffffffffffffffffffffffff1663907af6c06040518163ffffffff1660e01b815260040160206040518083038186803b15801561058257600080fd5b505afa158015610596573d6000803e3d6000fd5b505050506040513d601f19601f820116820180604052508101906105ba91906127e3565b600a6105c69190612d8a565b6040518363ffffffff1660e01b81526004016105e3929190612ad0565b602060405180830381600087803b1580156105fd57600080fd5b505af1158015610611573d6000803e3d6000fd5b505050506040513d601f19601f82011682018060405250810190610635919061270b565b505050565b60075481565b60085481565b603c81565b6000429050620151806008546106619190612d34565b4211156106915762015180816106779190612f41565b816106829190612de4565b6008819055506106906117dd565b5b600060038111156106cb577f4e487b7100000000000000000000000000000000000000000000000000000000600052602160045260246000fd5b600960009054906101000a900460ff166003811115610713577f4e487b7100000000000000000000000000000000000000000000000000000000600052602160045260246000fd5b14156107b757610721611a2e565b806007819055506001600960006101000a81548160ff02191690836003811115610774577f4e487b7100000000000000000000000000000000000000000000000000000000600052602160045260246000fd5b02179055507fa0b7f6f22bb4f69adc52dd16ffe2a964ab8b577be274247fa9a1547b03ce3e556006546040516107aa9190612c26565b60405180910390a1610b76565b600160038111156107f1577f4e487b7100000000000000000000000000000000000000000000000000000000600052602160045260246000fd5b600960009054906101000a900460ff166003811115610839577f4e487b7100000000000000000000000000000000000000000000000000000000600052602160045260246000fd5b14156108fd57610849601e611c4d565b80156108595750610858611c67565b5b156108f857610866611c8e565b806007819055506002600960006101000a81548160ff021916908360038111156108b9577f4e487b7100000000000000000000000000000000000000000000000000000000600052602160045260246000fd5b02179055507f50ad08f58a27f2851d7e3a1b3a6a46b290f2ce677e99642d30ff639721e777906006546040516108ef9190612c26565b60405180910390a15b610b75565b60026003811115610937577f4e487b7100000000000000000000000000000000000000000000000000000000600052602160045260246000fd5b600960009054906101000a900460ff16600381111561097f577f4e487b7100000000000000000000000000000000000000000000000000000000600052602160045260246000fd5b1415610a425761098f603c611c4d565b8061099e575061099d611fbb565b5b15610a3d576109ab61202a565b806007819055506003600960006101000a81548160ff021916908360038111156109fe577f4e487b7100000000000000000000000000000000000000000000000000000000600052602160045260246000fd5b02179055507f6543ec12c6e53f26532beb5289ef5732dcd77c2e9e9921ae42b695905f5e84c0600654604051610a349190612c26565b60405180910390a15b610b74565b600380811115610a7b577f4e487b7100000000000000000000000000000000000000000000000000000000600052602160045260246000fd5b600960009054906101000a900460ff166003811115610ac3577f4e487b7100000000000000000000000000000000000000000000000000000000600052602160045260246000fd5b1415610b7357610ad3600f611c4d565b15610b7257610ae0611a2e565b806007819055506001600960006101000a81548160ff02191690836003811115610b33577f4e487b7100000000000000000000000000000000000000000000000000000000600052602160045260246000fd5b02179055507f994bf845d204f6a7201202025f8f9ca46641b9bab2f1ef86a6681d8f4353a2a3600654604051610b699190612c26565b60405180910390a15b5b5b5b5b505050565b601e81565b600960009054906101000a900460ff1681565b600560009054906101000a900473ffffffffffffffffffffffffffffffffffffffff1681565b6000606062015180600854610bce9190612d34565b421115610bf05760016040518060200160405280600081525091509150610eeb565b60006003811115610c2a577f4e487b7100000000000000000000000000000000000000000000000000000000600052602160045260246000fd5b600960009054906101000a900460ff166003811115610c72577f4e487b7100000000000000000000000000000000000000000000000000000000600052602160045260246000fd5b1415610c935760016040518060200160405280600081525091509150610eeb565b60016003811115610ccd577f4e487b7100000000000000000000000000000000000000000000000000000000600052602160045260246000fd5b600960009054906101000a900460ff166003811115610d15577f4e487b7100000000000000000000000000000000000000000000000000000000600052602160045260246000fd5b1415610d5a57610d25601e611c4d565b8015610d355750610d34611c67565b5b15610d555760016040518060200160405280600081525091509150610eeb565b610ed4565b60026003811115610d94577f4e487b7100000000000000000000000000000000000000000000000000000000600052602160045260246000fd5b600960009054906101000a900460ff166003811115610ddc577f4e487b7100000000000000000000000000000000000000000000000000000000600052602160045260246000fd5b1415610e2057610dec603c611c4d565b80610dfb5750610dfa611fbb565b5b15610e1b5760016040518060200160405280600081525091509150610eeb565b610ed3565b600380811115610e59577f4e487b7100000000000000000000000000000000000000000000000000000000600052602160045260246000fd5b600960009054906101000a900460ff166003811115610ea1577f4e487b7100000000000000000000000000000000000000000000000000000000600052602160045260246000fd5b1415610ed257610eb1600f611c4d565b15610ed15760016040518060200160405280600081525091509150610eeb565b5b5b5b600060405180602001604052806000815250915091505b9250929050565b610efa612419565b600a600083815260200190815260200160002060405180604001604052908160008201805480602002602001604051908101604052809291908181526020018280548015610f9d57602002820191906000526020600020905b8160009054906101000a900473ffffffffffffffffffffffffffffffffffffffff1673ffffffffffffffffffffffffffffffffffffffff1681526020019060010190808311610f53575b505050505081526020016001820160009054906101000a900473ffffffffffffffffffffffffffffffffffffffff1673ffffffffffffffffffffffffffffffffffffffff1673ffffffffffffffffffffffffffffffffffffffff16815250509050919050565b61100b61234d565b73ffffffffffffffffffffffffffffffffffffffff1661102961168b565b73ffffffffffffffffffffffffffffffffffffffff161461107f576040517f08c379a000000000000000000000000000000000000000000000000000000000815260040161107690612ba4565b60405180910390fd5b6110896000612355565b565b600160009054906101000a900473ffffffffffffffffffffffffffffffffffffffff1673ffffffffffffffffffffffffffffffffffffffff163373ffffffffffffffffffffffffffffffffffffffff161461111b576040517f08c379a000000000000000000000000000000000000000000000000000000000815260040161111290612be4565b60405180910390fd5b80600260006101000a81548173ffffffffffffffffffffffffffffffffffffffff021916908373ffffffffffffffffffffffffffffffffffffffff16021790555050565b6000600560009054906101000a900473ffffffffffffffffffffffffffffffffffffffff16905060008173ffffffffffffffffffffffffffffffffffffffff166370a08231336040518263ffffffff1660e01b81526004016111c19190612a4e565b60206040518083038186803b1580156111d957600080fd5b505afa1580156111ed573d6000803e3d6000fd5b505050506040513d601f19601f8201168201806040525081019061121191906127e3565b11611251576040517f08c379a000000000000000000000000000000000000000000000000000000000815260040161124890612b64565b60405180910390fd5b6001600381111561128b577f4e487b7100000000000000000000000000000000000000000000000000000000600052602160045260246000fd5b600960009054906101000a900460ff1660038111156112d3577f4e487b7100000000000000000000000000000000000000000000000000000000600052602160045260246000fd5b14611313576040517f08c379a000000000000000000000000000000000000000000000000000000000815260040161130a90612bc4565b60405180910390fd5b6000600a600060065481526020019081526020016000206000018054806020026020016040519081016040528092919081815260200182805480156113ad57602002820191906000526020600020905b8160009054906101000a900473ffffffffffffffffffffffffffffffffffffffff1673ffffffffffffffffffffffffffffffffffffffff1681526020019060010190808311611363575b505050505090506000805b825181101561144d578281815181106113fa577f4e487b7100000000000000000000000000000000000000000000000000000000600052603260045260246000fd5b602002602001015173ffffffffffffffffffffffffffffffffffffffff163373ffffffffffffffffffffffffffffffffffffffff16141561143a57600191505b808061144590612ef8565b9150506113b8565b508061150657600a60006006548152602001908152602001600020600001339080600181540180825580915050600190039060005260206000200160009091909190916101000a81548173ffffffffffffffffffffffffffffffffffffffff021916908373ffffffffffffffffffffffffffffffffffffffff1602179055507f26ee8638c709a4696176532cc0dd81bf754ffdf04785c7d7f2e12eb2796851cd33856040516114fd929190612aa0565b60405180910390a15b50505050565b600260009054906101000a900473ffffffffffffffffffffffffffffffffffffffff1673ffffffffffffffffffffffffffffffffffffffff163373ffffffffffffffffffffffffffffffffffffffff1614806115b55750600160009054906101000a900473ffffffffffffffffffffffffffffffffffffffff1673ffffffffffffffffffffffffffffffffffffffff163373ffffffffffffffffffffffffffffffffffffffff16145b6115f4576040517f08c379a00000000000000000000000000000000000000000000000000000000081526004016115eb90612b84565b60405180910390fd5b80600a6000600654815260200190815260200160002060010160006101000a81548173ffffffffffffffffffffffffffffffffffffffff021916908373ffffffffffffffffffffffffffffffffffffffff1602179055507f970f935ee01502df35da11db45c29bdd97d8f41d5a0640c1dc3bd96c67f979878160405161167a9190612a4e565b60405180910390a150565b60035481565b60008060009054906101000a900473ffffffffffffffffffffffffffffffffffffffff16905090565b600460009054906101000a900473ffffffffffffffffffffffffffffffffffffffff1681565b60065481565b6116e861234d565b73ffffffffffffffffffffffffffffffffffffffff1661170661168b565b73ffffffffffffffffffffffffffffffffffffffff161461175c576040517f08c379a000000000000000000000000000000000000000000000000000000000815260040161175390612ba4565b60405180910390fd5b600073ffffffffffffffffffffffffffffffffffffffff168173ffffffffffffffffffffffffffffffffffffffff1614156117cc576040517f08c379a00000000000000000000000000000000000000000000000000000000081526004016117c390612b44565b60405180910390fd5b6117d581612355565b50565b600f81565b6000600460009054906101000a900473ffffffffffffffffffffffffffffffffffffffff1690506000600560009054906101000a900473ffffffffffffffffffffffffffffffffffffffff16905060008173ffffffffffffffffffffffffffffffffffffffff1663876b15666040518163ffffffff1660e01b815260040160006040518083038186803b15801561187357600080fd5b505afa158015611887573d6000803e3d6000fd5b505050506040513d6000823e3d601f19601f820116820180604052508101906118b091906126ca565b905060005b8151811015611a28578373ffffffffffffffffffffffffffffffffffffffff1663a9059cbb838381518110611913577f4e487b7100000000000000000000000000000000000000000000000000000000600052603260045260246000fd5b60200260200101518673ffffffffffffffffffffffffffffffffffffffff1663907af6c06040518163ffffffff1660e01b815260040160206040518083038186803b15801561196157600080fd5b505afa158015611975573d6000803e3d6000fd5b505050506040513d601f19601f8201168201806040525081019061199991906127e3565b600a6119a59190612d8a565b6040518363ffffffff1660e01b81526004016119c2929190612ad0565b602060405180830381600087803b1580156119dc57600080fd5b505af11580156119f0573d6000803e3d6000fd5b505050506040513d601f19601f82011682018060405250810190611a14919061270b565b508080611a2090612ef8565b9150506118b5565b50505050565b600260009054906101000a900473ffffffffffffffffffffffffffffffffffffffff1673ffffffffffffffffffffffffffffffffffffffff163373ffffffffffffffffffffffffffffffffffffffff161480611ad75750600160009054906101000a900473ffffffffffffffffffffffffffffffffffffffff1673ffffffffffffffffffffffffffffffffffffffff163373ffffffffffffffffffffffffffffffffffffffff16145b611b16576040517f08c379a0000000000000000000000000000000000000000000000000000000008152600401611b0d90612b84565b60405180910390fd5b60066000815480929190611b2990612ef8565b919050555060006040518060400160405280600067ffffffffffffffff811115611b7c577f4e487b7100000000000000000000000000000000000000000000000000000000600052604160045260246000fd5b604051908082528060200260200182016040528015611baa5781602001602082028036833780820191505090505b508152602001600073ffffffffffffffffffffffffffffffffffffffff16815250905080600a600060065481526020019081526020016000206000820151816000019080519060200190611bff929190612449565b5060208201518160010160006101000a81548173ffffffffffffffffffffffffffffffffffffffff021916908373ffffffffffffffffffffffffffffffffffffffff16021790555090505050565b60008160075442611c5e9190612de4565b10159050919050565b60006002600a60006006548152602001908152602001600020600001805490501015905090565b600260009054906101000a900473ffffffffffffffffffffffffffffffffffffffff1673ffffffffffffffffffffffffffffffffffffffff163373ffffffffffffffffffffffffffffffffffffffff161480611d375750600160009054906101000a900473ffffffffffffffffffffffffffffffffffffffff1673ffffffffffffffffffffffffffffffffffffffff163373ffffffffffffffffffffffffffffffffffffffff16145b611d76576040517f08c379a0000000000000000000000000000000000000000000000000000000008152600401611d6d90612b84565b60405180910390fd5b6000600460009054906101000a900473ffffffffffffffffffffffffffffffffffffffff1690506000600a60006006548152602001908152602001600020600001805480602002602001604051908101604052809291908181526020018280548015611e3757602002820191906000526020600020905b8160009054906101000a900473ffffffffffffffffffffffffffffffffffffffff1673ffffffffffffffffffffffffffffffffffffffff1681526020019060010190808311611ded575b5050505050905060005b8151811015611fb6578273ffffffffffffffffffffffffffffffffffffffff166323b872dd838381518110611e9f577f4e487b7100000000000000000000000000000000000000000000000000000000600052603260045260246000fd5b6020026020010151308673ffffffffffffffffffffffffffffffffffffffff1663907af6c06040518163ffffffff1660e01b815260040160206040518083038186803b158015611eee57600080fd5b505afa158015611f02573d6000803e3d6000fd5b505050506040513d601f19601f82011682018060405250810190611f2691906127e3565b6001611f329190612d8a565b6040518463ffffffff1660e01b8152600401611f5093929190612a69565b602060405180830381600087803b158015611f6a57600080fd5b505af1158015611f7e573d6000803e3d6000fd5b505050506040513d601f19601f82011682018060405250810190611fa2919061270b565b508080611fae90612ef8565b915050611e41565b505050565b60008073ffffffffffffffffffffffffffffffffffffffff16600a6000600654815260200190815260200160002060010160009054906101000a900473ffffffffffffffffffffffffffffffffffffffff1673ffffffffffffffffffffffffffffffffffffffff161415905090565b600260009054906101000a900473ffffffffffffffffffffffffffffffffffffffff1673ffffffffffffffffffffffffffffffffffffffff163373ffffffffffffffffffffffffffffffffffffffff1614806120d35750600160009054906101000a900473ffffffffffffffffffffffffffffffffffffffff1673ffffffffffffffffffffffffffffffffffffffff163373ffffffffffffffffffffffffffffffffffffffff16145b612112576040517f08c379a000000000000000000000000000000000000000000000000000000000815260040161210990612b84565b60405180910390fd5b61211a611fbb565b1561234b576000600460009054906101000a900473ffffffffffffffffffffffffffffffffffffffff1690506000600a600060065481526020019081526020016000206000018054806020026020016040519081016040528092919081815260200182805480156121e057602002820191906000526020600020905b8160009054906101000a900473ffffffffffffffffffffffffffffffffffffffff1673ffffffffffffffffffffffffffffffffffffffff1681526020019060010190808311612196575b505050505090506000815190506000600a6000600654815260200190815260200160002060010160009054906101000a900473ffffffffffffffffffffffffffffffffffffffff16905060008473ffffffffffffffffffffffffffffffffffffffff1663907af6c06040518163ffffffff1660e01b815260040160206040518083038186803b15801561227257600080fd5b505afa158015612286573d6000803e3d6000fd5b505050506040513d601f19601f820116820180604052508101906122aa91906127e3565b836122b59190612d8a565b90508473ffffffffffffffffffffffffffffffffffffffff1663a9059cbb83836040518363ffffffff1660e01b81526004016122f2929190612ad0565b602060405180830381600087803b15801561230c57600080fd5b505af1158015612320573d6000803e3d6000fd5b505050506040513d601f19601f82011682018060405250810190612344919061270b565b5050505050505b565b600033905090565b60008060009054906101000a900473ffffffffffffffffffffffffffffffffffffffff169050816000806101000a81548173ffffffffffffffffffffffffffffffffffffffff021916908373ffffffffffffffffffffffffffffffffffffffff1602179055508173ffffffffffffffffffffffffffffffffffffffff168173ffffffffffffffffffffffffffffffffffffffff167f8be0079c531659141344cd1fd0a4f28419497f9722a3daafe3b4186f6b6457e060405160405180910390a35050565b604051806040016040528060608152602001600073ffffffffffffffffffffffffffffffffffffffff1681525090565b8280548282559060005260206000209081019282156124c2579160200282015b828111156124c15782518260006101000a81548173ffffffffffffffffffffffffffffffffffffffff021916908373ffffffffffffffffffffffffffffffffffffffff16021790555091602001919060010190612469565b5b5090506124cf91906124d3565b5090565b5b808211156124ec5760008160009055506001016124d4565b5090565b60006125036124fe84612c66565b612c41565b9050808382526020820190508285602086028201111561252257600080fd5b60005b85811015612552578161253888826125af565b845260208401935060208301925050600181019050612525565b5050509392505050565b600061256f61256a84612c92565b612c41565b90508281526020810184848401111561258757600080fd5b612592848285612e85565b509392505050565b6000813590506125a981613207565b92915050565b6000815190506125be81613207565b92915050565b600082601f8301126125d557600080fd5b81516125e58482602086016124f0565b91505092915050565b6000815190506125fd8161321e565b92915050565b60008083601f84011261261557600080fd5b8235905067ffffffffffffffff81111561262e57600080fd5b60208301915083600182028301111561264657600080fd5b9250929050565b600082601f83011261265e57600080fd5b813561266e84826020860161255c565b91505092915050565b60008135905061268681613235565b92915050565b60008151905061269b81613235565b92915050565b6000602082840312156126b357600080fd5b60006126c18482850161259a565b91505092915050565b6000602082840312156126dc57600080fd5b600082015167ffffffffffffffff8111156126f657600080fd5b612702848285016125c4565b91505092915050565b60006020828403121561271d57600080fd5b600061272b848285016125ee565b91505092915050565b6000806020838503121561274757600080fd5b600083013567ffffffffffffffff81111561276157600080fd5b61276d85828601612603565b92509250509250929050565b60006020828403121561278b57600080fd5b600082013567ffffffffffffffff8111156127a557600080fd5b6127b18482850161264d565b91505092915050565b6000602082840312156127cc57600080fd5b60006127da84828501612677565b91505092915050565b6000602082840312156127f557600080fd5b60006128038482850161268c565b91505092915050565b60006128188383612824565b60208301905092915050565b61282d81612e18565b82525050565b61283c81612e18565b82525050565b600061284d82612cd3565b6128578185612d01565b935061286283612cc3565b8060005b8381101561289357815161287a888261280c565b975061288583612cf4565b925050600181019050612866565b5085935050505092915050565b6128a981612e2a565b82525050565b60006128ba82612cde565b6128c48185612d12565b93506128d4818560208601612e94565b6128dd8161302e565b840191505092915050565b6128f181612e73565b82525050565b600061290282612ce9565b61290c8185612d23565b935061291c818560208601612e94565b6129258161302e565b840191505092915050565b600061293d602683612d23565b91506129488261303f565b604082019050919050565b6000612960602283612d23565b915061296b8261308e565b604082019050919050565b6000612983603483612d23565b915061298e826130dd565b604082019050919050565b60006129a6602083612d23565b91506129b18261312c565b602082019050919050565b60006129c9603c83612d23565b91506129d482613155565b604082019050919050565b60006129ec602a83612d23565b91506129f7826131a4565b604082019050919050565b60006040830160008301518482036000860152612a1f8282612842565b9150506020830151612a346020860182612824565b508091505092915050565b612a4881612e69565b82525050565b6000602082019050612a636000830184612833565b92915050565b6000606082019050612a7e6000830186612833565b612a8b6020830185612833565b612a986040830184612a3f565b949350505050565b6000604082019050612ab56000830185612833565b8181036020830152612ac781846128f7565b90509392505050565b6000604082019050612ae56000830185612833565b612af26020830184612a3f565b9392505050565b6000604082019050612b0e60008301856128a0565b8181036020830152612b2081846128af565b90509392505050565b6000602082019050612b3e60008301846128e8565b92915050565b60006020820190508181036000830152612b5d81612930565b9050919050565b60006020820190508181036000830152612b7d81612953565b9050919050565b60006020820190508181036000830152612b9d81612976565b9050919050565b60006020820190508181036000830152612bbd81612999565b9050919050565b60006020820190508181036000830152612bdd816129bc565b9050919050565b60006020820190508181036000830152612bfd816129df565b9050919050565b60006020820190508181036000830152612c1e8184612a02565b905092915050565b6000602082019050612c3b6000830184612a3f565b92915050565b6000612c4b612c5c565b9050612c578282612ec7565b919050565b6000604051905090565b600067ffffffffffffffff821115612c8157612c80612fff565b5b602082029050602081019050919050565b600067ffffffffffffffff821115612cad57612cac612fff565b5b612cb68261302e565b9050602081019050919050565b6000819050602082019050919050565b600081519050919050565b600081519050919050565b600081519050919050565b6000602082019050919050565b600082825260208201905092915050565b600082825260208201905092915050565b600082825260208201905092915050565b6000612d3f82612e69565b9150612d4a83612e69565b9250827fffffffffffffffffffffffffffffffffffffffffffffffffffffffffffffffff03821115612d7f57612d7e612f72565b5b828201905092915050565b6000612d9582612e69565b9150612da083612e69565b9250817fffffffffffffffffffffffffffffffffffffffffffffffffffffffffffffffff0483118215151615612dd957612dd8612f72565b5b828202905092915050565b6000612def82612e69565b9150612dfa83612e69565b925082821015612e0d57612e0c612f72565b5b828203905092915050565b6000612e2382612e49565b9050919050565b60008115159050919050565b6000819050612e44826131f3565b919050565b600073ffffffffffffffffffffffffffffffffffffffff82169050919050565b6000819050919050565b6000612e7e82612e36565b9050919050565b82818337600083830152505050565b60005b83811015612eb2578082015181840152602081019050612e97565b83811115612ec1576000848401525b50505050565b612ed08261302e565b810181811067ffffffffffffffff82111715612eef57612eee612fff565b5b80604052505050565b6000612f0382612e69565b91507fffffffffffffffffffffffffffffffffffffffffffffffffffffffffffffffff821415612f3657612f35612f72565b5b600182019050919050565b6000612f4c82612e69565b9150612f5783612e69565b925082612f6757612f66612fa1565b5b828206905092915050565b7f4e487b7100000000000000000000000000000000000000000000000000000000600052601160045260246000fd5b7f4e487b7100000000000000000000000000000000000000000000000000000000600052601260045260246000fd5b7f4e487b7100000000000000000000000000000000000000000000000000000000600052602160045260246000fd5b7f4e487b7100000000000000000000000000000000000000000000000000000000600052604160045260246000fd5b6000601f19601f8301169050919050565b7f4f776e61626c653a206e6577206f776e657220697320746865207a65726f206160008201527f6464726573730000000000000000000000000000000000000000000000000000602082015250565b7f50324547616d653a204d757374206265204e4654206f776e657220746f20706c60008201527f6179000000000000000000000000000000000000000000000000000000000000602082015250565b7f50324547616d653a2041646d696e206f72204b65657065722063616e2070657260008201527f666f726d2074686973206f7065726174696f6e2e000000000000000000000000602082015250565b7f4f776e61626c653a2063616c6c6572206973206e6f7420746865206f776e6572600082015250565b7f50324547616d653a20546869732067616d652073657373696f6e20697320656960008201527f746865722072756e6e696e67206f72206861732066696e697368656400000000602082015250565b7f50324547616d653a2041646d696e2063616e20706572666f726d20746869732060008201527f6f7065726174696f6e2e00000000000000000000000000000000000000000000602082015250565b6004811061320457613203612fd0565b5b50565b61321081612e18565b811461321b57600080fd5b50565b61322781612e2a565b811461323257600080fd5b50565b61323e81612e69565b811461324957600080fd5b5056fea264697066735822122085acd8b11f92cde803031bf1f39e7ade01a312166218d078f83485d17750d3fe64736f6c63430008040033",
  "linkReferences": {},
  "deployedLinkReferences": {}
}