{
  "_format": "hh-sol-artifact-1",
  "contractName": "P2EGame",
  "sourceName": "contracts/P2EGame.sol",
  "abi": [
    {
      "inputs": [
        {
          "internalType": "address",
          "name": "_tokenAddress",
          "type": "address"
        },
        {
          "internalType": "address",
          "name": "_nftAddress",
          "type": "address"
        }
      ],
      "stateMutability": "nonpayable",
      "type": "constructor"
    },
    {
      "anonymous": false,
      "inputs": [
        {
          "indexed": false,
          "internalType": "uint256",
          "name": "id",
          "type": "uint256"
        }
      ],
      "name": "AllPlayersLost",
      "type": "event"
    },
    {
      "anonymous": false,
      "inputs": [
        {
          "indexed": false,
          "internalType": "uint256",
          "name": "id",
          "type": "uint256"
        }
      ],
      "name": "GameFinished",
      "type": "event"
    },
    {
      "anonymous": false,
      "inputs": [
        {
          "indexed": false,
          "internalType": "uint256",
          "name": "id",
          "type": "uint256"
        }
      ],
      "name": "GameSettled",
      "type": "event"
    },
    {
      "anonymous": false,
      "inputs": [
        {
          "indexed": false,
          "internalType": "uint256",
          "name": "id",
          "type": "uint256"
        }
      ],
      "name": "GameStarted",
      "type": "event"
    },
    {
      "anonymous": false,
      "inputs": [
        {
          "indexed": false,
          "internalType": "uint256",
          "name": "id",
          "type": "uint256"
        }
      ],
      "name": "NewGame",
      "type": "event"
    },
    {
      "anonymous": false,
      "inputs": [
        {
          "indexed": true,
          "internalType": "address",
          "name": "previousOwner",
          "type": "address"
        },
        {
          "indexed": true,
          "internalType": "address",
          "name": "newOwner",
          "type": "address"
        }
      ],
      "name": "OwnershipTransferred",
      "type": "event"
    },
    {
      "anonymous": false,
      "inputs": [
        {
          "indexed": false,
          "internalType": "address",
          "name": "playerAddress",
          "type": "address"
        },
        {
          "indexed": false,
          "internalType": "string",
          "name": "clientId",
          "type": "string"
        }
      ],
      "name": "PlayerJoinedGame",
      "type": "event"
    },
    {
      "anonymous": false,
      "inputs": [
        {
          "indexed": false,
          "internalType": "address",
          "name": "playerAddress",
          "type": "address"
        }
      ],
      "name": "PlayerWon",
      "type": "event"
    },
    {
      "inputs": [
        {
          "internalType": "string",
          "name": "clientId",
          "type": "string"
        }
      ],
      "name": "addPlayerToGameSession",
      "outputs": [],
      "stateMutability": "nonpayable",
      "type": "function"
    },
    {
      "inputs": [
        {
          "internalType": "uint256",
          "name": "_gameId",
          "type": "uint256"
        }
      ],
      "name": "allPlayersLost",
      "outputs": [],
      "stateMutability": "nonpayable",
      "type": "function"
    },
    {
      "inputs": [
        {
          "internalType": "bytes",
          "name": "",
          "type": "bytes"
        }
      ],
      "name": "checkUpkeep",
      "outputs": [
        {
          "internalType": "bool",
          "name": "upkeepNeeded",
          "type": "bool"
        },
        {
          "internalType": "bytes",
          "name": "",
          "type": "bytes"
        }
      ],
      "stateMutability": "view",
      "type": "function"
    },
    {
      "inputs": [],
      "name": "gameId",
      "outputs": [
        {
          "internalType": "uint256",
          "name": "",
          "type": "uint256"
        }
      ],
      "stateMutability": "view",
      "type": "function"
    },
    {
      "inputs": [],
      "name": "gameLengthSeconds",
      "outputs": [
        {
          "internalType": "uint256",
          "name": "",
          "type": "uint256"
        }
      ],
      "stateMutability": "view",
      "type": "function"
    },
    {
      "inputs": [],
      "name": "gameSessionState",
      "outputs": [
        {
          "internalType": "enum P2EGame.GameSessionState",
          "name": "",
          "type": "uint8"
        }
      ],
      "stateMutability": "view",
      "type": "function"
    },
    {
      "inputs": [
        {
          "internalType": "uint256",
          "name": "_gameId",
          "type": "uint256"
        }
      ],
      "name": "getGameSessions",
      "outputs": [
        {
          "components": [
            {
              "internalType": "address[]",
              "name": "players",
              "type": "address[]"
            },
            {
              "internalType": "address",
              "name": "winner",
              "type": "address"
            },
            {
              "internalType": "bool",
              "name": "allPlayersLost",
              "type": "bool"
            }
          ],
          "internalType": "struct P2EGame.GameSession",
          "name": "",
          "type": "tuple"
        }
      ],
      "stateMutability": "view",
      "type": "function"
    },
    {
      "inputs": [],
      "name": "inLobbySeconds",
      "outputs": [
        {
          "internalType": "uint256",
          "name": "",
          "type": "uint256"
        }
      ],
      "stateMutability": "view",
      "type": "function"
    },
    {
      "inputs": [],
      "name": "lastTimestamp",
      "outputs": [
        {
          "internalType": "uint256",
          "name": "",
          "type": "uint256"
        }
      ],
      "stateMutability": "view",
      "type": "function"
    },
    {
      "inputs": [],
      "name": "lastYieldTimestamp",
      "outputs": [
        {
          "internalType": "uint256",
          "name": "",
          "type": "uint256"
        }
      ],
      "stateMutability": "view",
      "type": "function"
    },
    {
      "inputs": [],
      "name": "mintOne",
      "outputs": [],
      "stateMutability": "payable",
      "type": "function"
    },
    {
      "inputs": [],
      "name": "nftAddress",
      "outputs": [
        {
          "internalType": "address",
          "name": "",
          "type": "address"
        }
      ],
      "stateMutability": "view",
      "type": "function"
    },
    {
      "inputs": [],
      "name": "owner",
      "outputs": [
        {
          "internalType": "address",
          "name": "",
          "type": "address"
        }
      ],
      "stateMutability": "view",
      "type": "function"
    },
    {
      "inputs": [
        {
          "internalType": "bytes",
          "name": "",
          "type": "bytes"
        }
      ],
      "name": "performUpkeep",
      "outputs": [],
      "stateMutability": "nonpayable",
      "type": "function"
    },
    {
      "inputs": [
        {
          "internalType": "address",
          "name": "_player",
          "type": "address"
        },
        {
          "internalType": "uint256",
          "name": "_gameId",
          "type": "uint256"
        }
      ],
      "name": "playerWon",
      "outputs": [],
      "stateMutability": "nonpayable",
      "type": "function"
    },
    {
      "inputs": [],
      "name": "renounceOwnership",
      "outputs": [],
      "stateMutability": "nonpayable",
      "type": "function"
    },
    {
      "inputs": [
        {
          "internalType": "address",
          "name": "_keeper",
          "type": "address"
        }
      ],
      "name": "setKeeper",
      "outputs": [],
      "stateMutability": "nonpayable",
      "type": "function"
    },
    {
      "inputs": [],
      "name": "showScoresSeconds",
      "outputs": [
        {
          "internalType": "uint256",
          "name": "",
          "type": "uint256"
        }
      ],
      "stateMutability": "view",
      "type": "function"
    },
    {
      "inputs": [],
      "name": "tokenAddress",
      "outputs": [
        {
          "internalType": "address",
          "name": "",
          "type": "address"
        }
      ],
      "stateMutability": "view",
      "type": "function"
    },
    {
      "inputs": [
        {
          "internalType": "address",
          "name": "newOwner",
          "type": "address"
        }
      ],
      "name": "transferOwnership",
      "outputs": [],
      "stateMutability": "nonpayable",
      "type": "function"
    }
  ],
  "bytecode": "0x6080604052600060065560006007553480156200001b57600080fd5b506040516200382138038062003821833981810160405281019062000041919062000270565b62000061620000556200018d60201b60201c565b6200019560201b60201c565b81600360006101000a81548173ffffffffffffffffffffffffffffffffffffffff021916908373ffffffffffffffffffffffffffffffffffffffff16021790555080600460006101000a81548173ffffffffffffffffffffffffffffffffffffffff021916908373ffffffffffffffffffffffffffffffffffffffff16021790555033600160006101000a81548173ffffffffffffffffffffffffffffffffffffffff021916908373ffffffffffffffffffffffffffffffffffffffff16021790555060006005819055506000600860006101000a81548160ff0219169083600381111562000179577f4e487b7100000000000000000000000000000000000000000000000000000000600052602160045260246000fd5b0217905550426007819055505050620002ff565b600033905090565b60008060009054906101000a900473ffffffffffffffffffffffffffffffffffffffff169050816000806101000a81548173ffffffffffffffffffffffffffffffffffffffff021916908373ffffffffffffffffffffffffffffffffffffffff1602179055508173ffffffffffffffffffffffffffffffffffffffff168173ffffffffffffffffffffffffffffffffffffffff167f8be0079c531659141344cd1fd0a4f28419497f9722a3daafe3b4186f6b6457e060405160405180910390a35050565b6000815190506200026a81620002e5565b92915050565b600080604083850312156200028457600080fd5b6000620002948582860162000259565b9250506020620002a78582860162000259565b9150509250929050565b6000620002be82620002c5565b9050919050565b600073ffffffffffffffffffffffffffffffffffffffff82169050919050565b620002f081620002b1565b8114620002fc57600080fd5b50565b613512806200030f6000396000f3fe60806040526004361061011f5760003560e01c80636e20b075116100a05780639d76ea58116100645780639d76ea5814610391578063d7c81b55146103bc578063dc145ea5146103e7578063f2fde38b14610410578063f9c4f22c146104395761011f565b80636e20b075146102c0578063715018a6146102fd578063748747e61461031457806375b3e7e11461033d5780638da5cb5b146103665761011f565b80634585e33b116100e75780634585e33b146101d8578063478f59cb1461020157806349979cf31461022c5780635bf8633a146102575780636e04ff0d146102825761011f565b80630ced86371461012457806319d8ac611461012e578063201469a814610159578063266264da146101845780632b3d2700146101af575b600080fd5b61012c610464565b005b34801561013a57600080fd5b50610143610638565b6040516101509190612eb6565b60405180910390f35b34801561016557600080fd5b5061016e61063e565b60405161017b9190612eb6565b60405180910390f35b34801561019057600080fd5b50610199610644565b6040516101a69190612eb6565b60405180910390f35b3480156101bb57600080fd5b506101d660048036038101906101d19190612a28565b610649565b005b3480156101e457600080fd5b506101ff60048036038101906101fa91906129a2565b6107a9565b005b34801561020d57600080fd5b50610216610ce6565b6040516102239190612eb6565b60405180910390f35b34801561023857600080fd5b50610241610ceb565b60405161024e9190612db9565b60405180910390f35b34801561026357600080fd5b5061026c610cfe565b6040516102799190612cde565b60405180910390f35b34801561028e57600080fd5b506102a960048036038101906102a491906129a2565b610d24565b6040516102b7929190612d89565b60405180910390f35b3480156102cc57600080fd5b506102e760048036038101906102e29190612a28565b61106b565b6040516102f49190612e94565b60405180910390f35b34801561030957600080fd5b50610312611197565b005b34801561032057600080fd5b5061033b600480360381019061033691906128d3565b61121f565b005b34801561034957600080fd5b50610364600480360381019061035f91906129e7565b6112f3565b005b34801561037257600080fd5b5061037b6116a0565b6040516103889190612cde565b60405180910390f35b34801561039d57600080fd5b506103a66116c9565b6040516103b39190612cde565b60405180910390f35b3480156103c857600080fd5b506103d16116ef565b6040516103de9190612eb6565b60405180910390f35b3480156103f357600080fd5b5061040e600480360381019061040991906128fc565b6116f5565b005b34801561041c57600080fd5b50610437600480360381019061043291906128d3565b61187a565b005b34801561044557600080fd5b5061044e611972565b60405161045b9190612eb6565b60405180910390f35b6000600460009054906101000a900473ffffffffffffffffffffffffffffffffffffffff1690508073ffffffffffffffffffffffffffffffffffffffff1663fa695a97336040518263ffffffff1660e01b81526004016104c49190612cde565b600060405180830381600087803b1580156104de57600080fd5b505af11580156104f2573d6000803e3d6000fd5b505050506000600360009054906101000a900473ffffffffffffffffffffffffffffffffffffffff1690508073ffffffffffffffffffffffffffffffffffffffff1663a9059cbb338373ffffffffffffffffffffffffffffffffffffffff1663907af6c06040518163ffffffff1660e01b815260040160206040518083038186803b15801561058057600080fd5b505afa158015610594573d6000803e3d6000fd5b505050506040513d601f19601f820116820180604052508101906105b89190612a51565b600a6105c4919061301a565b6040518363ffffffff1660e01b81526004016105e1929190612d60565b602060405180830381600087803b1580156105fb57600080fd5b505af115801561060f573d6000803e3d6000fd5b505050506040513d601f19601f820116820180604052508101906106339190612979565b505050565b60065481565b60075481565b603c81565b600260009054906101000a900473ffffffffffffffffffffffffffffffffffffffff1673ffffffffffffffffffffffffffffffffffffffff163373ffffffffffffffffffffffffffffffffffffffff1614806106f25750600160009054906101000a900473ffffffffffffffffffffffffffffffffffffffff1673ffffffffffffffffffffffffffffffffffffffff163373ffffffffffffffffffffffffffffffffffffffff16145b610731576040517f08c379a000000000000000000000000000000000000000000000000000000000815260040161072890612e14565b60405180910390fd5b6005548114156107a657600160096000600554815260200190815260200160002060010160146101000a81548160ff0219169083151502179055507ff71c8b11cebb6922cd26c047dfd64da1fb48c2c500b10e26bc79335bb3b045bd60055460405161079d9190612eb6565b60405180910390a15b50565b6000429050610e106007546107be9190612fc4565b4211156107ed57610e10816107d391906131d1565b816107de9190613074565b6007819055506107ec611977565b5b60006003811115610827577f4e487b7100000000000000000000000000000000000000000000000000000000600052602160045260246000fd5b600860009054906101000a900460ff16600381111561086f577f4e487b7100000000000000000000000000000000000000000000000000000000600052602160045260246000fd5b14156109135761087d611bc8565b806006819055506001600860006101000a81548160ff021916908360038111156108d0577f4e487b7100000000000000000000000000000000000000000000000000000000600052602160045260246000fd5b02179055507fa0b7f6f22bb4f69adc52dd16ffe2a964ab8b577be274247fa9a1547b03ce3e556005546040516109069190612eb6565b60405180910390a1610ce1565b6001600381111561094d577f4e487b7100000000000000000000000000000000000000000000000000000000600052602160045260246000fd5b600860009054906101000a900460ff166003811115610995577f4e487b7100000000000000000000000000000000000000000000000000000000600052602160045260246000fd5b1415610a59576109a5601e611e10565b80156109b557506109b4611e2a565b5b15610a54576109c2611e51565b806006819055506002600860006101000a81548160ff02191690836003811115610a15577f4e487b7100000000000000000000000000000000000000000000000000000000600052602160045260246000fd5b02179055507f50ad08f58a27f2851d7e3a1b3a6a46b290f2ce677e99642d30ff639721e77790600554604051610a4b9190612eb6565b60405180910390a15b610ce0565b60026003811115610a93577f4e487b7100000000000000000000000000000000000000000000000000000000600052602160045260246000fd5b600860009054906101000a900460ff166003811115610adb577f4e487b7100000000000000000000000000000000000000000000000000000000600052602160045260246000fd5b1415610bad57610aeb603c611e10565b80610afa5750610af961217e565b5b80610b095750610b086121ed565b5b15610ba857610b1661221a565b806006819055506003600860006101000a81548160ff02191690836003811115610b69577f4e487b7100000000000000000000000000000000000000000000000000000000600052602160045260246000fd5b02179055507f6543ec12c6e53f26532beb5289ef5732dcd77c2e9e9921ae42b695905f5e84c0600554604051610b9f9190612eb6565b60405180910390a15b610cdf565b600380811115610be6577f4e487b7100000000000000000000000000000000000000000000000000000000600052602160045260246000fd5b600860009054906101000a900460ff166003811115610c2e577f4e487b7100000000000000000000000000000000000000000000000000000000600052602160045260246000fd5b1415610cde57610c3e600f611e10565b15610cdd57610c4b611bc8565b806006819055506001600860006101000a81548160ff02191690836003811115610c9e577f4e487b7100000000000000000000000000000000000000000000000000000000600052602160045260246000fd5b02179055507fa0b7f6f22bb4f69adc52dd16ffe2a964ab8b577be274247fa9a1547b03ce3e55600554604051610cd49190612eb6565b60405180910390a15b5b5b5b5b505050565b601e81565b600860009054906101000a900460ff1681565b600460009054906101000a900473ffffffffffffffffffffffffffffffffffffffff1681565b60006060610e10600754610d389190612fc4565b421115610d5a5760016040518060200160405280600081525091509150611064565b60006003811115610d94577f4e487b7100000000000000000000000000000000000000000000000000000000600052602160045260246000fd5b600860009054906101000a900460ff166003811115610ddc577f4e487b7100000000000000000000000000000000000000000000000000000000600052602160045260246000fd5b1415610dfd5760016040518060200160405280600081525091509150611064565b60016003811115610e37577f4e487b7100000000000000000000000000000000000000000000000000000000600052602160045260246000fd5b600860009054906101000a900460ff166003811115610e7f577f4e487b7100000000000000000000000000000000000000000000000000000000600052602160045260246000fd5b1415610ec457610e8f601e611e10565b8015610e9f5750610e9e611e2a565b5b15610ebf5760016040518060200160405280600081525091509150611064565b61104d565b60026003811115610efe577f4e487b7100000000000000000000000000000000000000000000000000000000600052602160045260246000fd5b600860009054906101000a900460ff166003811115610f46577f4e487b7100000000000000000000000000000000000000000000000000000000600052602160045260246000fd5b1415610f9957610f56603c611e10565b80610f655750610f6461217e565b5b80610f745750610f736121ed565b5b15610f945760016040518060200160405280600081525091509150611064565b61104c565b600380811115610fd2577f4e487b7100000000000000000000000000000000000000000000000000000000600052602160045260246000fd5b600860009054906101000a900460ff16600381111561101a577f4e487b7100000000000000000000000000000000000000000000000000000000600052602160045260246000fd5b141561104b5761102a600f611e10565b1561104a5760016040518060200160405280600081525091509150611064565b5b5b5b600060405180602001604052806000815250915091505b9250929050565b611073612642565b600960008381526020019081526020016000206040518060600160405290816000820180548060200260200160405190810160405280929190818152602001828054801561111657602002820191906000526020600020905b8160009054906101000a900473ffffffffffffffffffffffffffffffffffffffff1673ffffffffffffffffffffffffffffffffffffffff16815260200190600101908083116110cc575b505050505081526020016001820160009054906101000a900473ffffffffffffffffffffffffffffffffffffffff1673ffffffffffffffffffffffffffffffffffffffff1673ffffffffffffffffffffffffffffffffffffffff1681526020016001820160149054906101000a900460ff1615151515815250509050919050565b61119f612576565b73ffffffffffffffffffffffffffffffffffffffff166111bd6116a0565b73ffffffffffffffffffffffffffffffffffffffff1614611213576040517f08c379a000000000000000000000000000000000000000000000000000000000815260040161120a90612e34565b60405180910390fd5b61121d600061257e565b565b600160009054906101000a900473ffffffffffffffffffffffffffffffffffffffff1673ffffffffffffffffffffffffffffffffffffffff163373ffffffffffffffffffffffffffffffffffffffff16146112af576040517f08c379a00000000000000000000000000000000000000000000000000000000081526004016112a690612e74565b60405180910390fd5b80600260006101000a81548173ffffffffffffffffffffffffffffffffffffffff021916908373ffffffffffffffffffffffffffffffffffffffff16021790555050565b6000600460009054906101000a900473ffffffffffffffffffffffffffffffffffffffff16905060008173ffffffffffffffffffffffffffffffffffffffff166370a08231336040518263ffffffff1660e01b81526004016113559190612cde565b60206040518083038186803b15801561136d57600080fd5b505afa158015611381573d6000803e3d6000fd5b505050506040513d601f19601f820116820180604052508101906113a59190612a51565b116113e5576040517f08c379a00000000000000000000000000000000000000000000000000000000081526004016113dc90612df4565b60405180910390fd5b6001600381111561141f577f4e487b7100000000000000000000000000000000000000000000000000000000600052602160045260246000fd5b600860009054906101000a900460ff166003811115611467577f4e487b7100000000000000000000000000000000000000000000000000000000600052602160045260246000fd5b146114a7576040517f08c379a000000000000000000000000000000000000000000000000000000000815260040161149e90612e54565b60405180910390fd5b600060096000600554815260200190815260200160002060000180548060200260200160405190810160405280929190818152602001828054801561154157602002820191906000526020600020905b8160009054906101000a900473ffffffffffffffffffffffffffffffffffffffff1673ffffffffffffffffffffffffffffffffffffffff16815260200190600101908083116114f7575b505050505090506000805b82518110156115e15782818151811061158e577f4e487b7100000000000000000000000000000000000000000000000000000000600052603260045260246000fd5b602002602001015173ffffffffffffffffffffffffffffffffffffffff163373ffffffffffffffffffffffffffffffffffffffff1614156115ce57600191505b80806115d990613188565b91505061154c565b508061169a57600960006005548152602001908152602001600020600001339080600181540180825580915050600190039060005260206000200160009091909190916101000a81548173ffffffffffffffffffffffffffffffffffffffff021916908373ffffffffffffffffffffffffffffffffffffffff1602179055507f26ee8638c709a4696176532cc0dd81bf754ffdf04785c7d7f2e12eb2796851cd3385604051611691929190612d30565b60405180910390a15b50505050565b60008060009054906101000a900473ffffffffffffffffffffffffffffffffffffffff16905090565b600360009054906101000a900473ffffffffffffffffffffffffffffffffffffffff1681565b60055481565b600260009054906101000a900473ffffffffffffffffffffffffffffffffffffffff1673ffffffffffffffffffffffffffffffffffffffff163373ffffffffffffffffffffffffffffffffffffffff16148061179e5750600160009054906101000a900473ffffffffffffffffffffffffffffffffffffffff1673ffffffffffffffffffffffffffffffffffffffff163373ffffffffffffffffffffffffffffffffffffffff16145b6117dd576040517f08c379a00000000000000000000000000000000000000000000000000000000081526004016117d490612e14565b60405180910390fd5b600554811415611876578160096000600554815260200190815260200160002060010160006101000a81548173ffffffffffffffffffffffffffffffffffffffff021916908373ffffffffffffffffffffffffffffffffffffffff1602179055507f970f935ee01502df35da11db45c29bdd97d8f41d5a0640c1dc3bd96c67f979878260405161186d9190612cde565b60405180910390a15b5050565b611882612576565b73ffffffffffffffffffffffffffffffffffffffff166118a06116a0565b73ffffffffffffffffffffffffffffffffffffffff16146118f6576040517f08c379a00000000000000000000000000000000000000000000000000000000081526004016118ed90612e34565b60405180910390fd5b600073ffffffffffffffffffffffffffffffffffffffff168173ffffffffffffffffffffffffffffffffffffffff161415611966576040517f08c379a000000000000000000000000000000000000000000000000000000000815260040161195d90612dd4565b60405180910390fd5b61196f8161257e565b50565b600f81565b6000600360009054906101000a900473ffffffffffffffffffffffffffffffffffffffff1690506000600460009054906101000a900473ffffffffffffffffffffffffffffffffffffffff16905060008173ffffffffffffffffffffffffffffffffffffffff1663876b15666040518163ffffffff1660e01b815260040160006040518083038186803b158015611a0d57600080fd5b505afa158015611a21573d6000803e3d6000fd5b505050506040513d6000823e3d601f19601f82011682018060405250810190611a4a9190612938565b905060005b8151811015611bc2578373ffffffffffffffffffffffffffffffffffffffff1663a9059cbb838381518110611aad577f4e487b7100000000000000000000000000000000000000000000000000000000600052603260045260246000fd5b60200260200101518673ffffffffffffffffffffffffffffffffffffffff1663907af6c06040518163ffffffff1660e01b815260040160206040518083038186803b158015611afb57600080fd5b505afa158015611b0f573d6000803e3d6000fd5b505050506040513d601f19601f82011682018060405250810190611b339190612a51565b6001611b3f919061301a565b6040518363ffffffff1660e01b8152600401611b5c929190612d60565b602060405180830381600087803b158015611b7657600080fd5b505af1158015611b8a573d6000803e3d6000fd5b505050506040513d601f19601f82011682018060405250810190611bae9190612979565b508080611bba90613188565b915050611a4f565b50505050565b600260009054906101000a900473ffffffffffffffffffffffffffffffffffffffff1673ffffffffffffffffffffffffffffffffffffffff163373ffffffffffffffffffffffffffffffffffffffff161480611c715750600160009054906101000a900473ffffffffffffffffffffffffffffffffffffffff1673ffffffffffffffffffffffffffffffffffffffff163373ffffffffffffffffffffffffffffffffffffffff16145b611cb0576040517f08c379a0000000000000000000000000000000000000000000000000000000008152600401611ca790612e14565b60405180910390fd5b60056000815480929190611cc390613188565b919050555060006040518060600160405280600067ffffffffffffffff811115611d16577f4e487b7100000000000000000000000000000000000000000000000000000000600052604160045260246000fd5b604051908082528060200260200182016040528015611d445781602001602082028036833780820191505090505b508152602001600073ffffffffffffffffffffffffffffffffffffffff168152602001600015158152509050806009600060055481526020019081526020016000206000820151816000019080519060200190611da292919061267b565b5060208201518160010160006101000a81548173ffffffffffffffffffffffffffffffffffffffff021916908373ffffffffffffffffffffffffffffffffffffffff16021790555060408201518160010160146101000a81548160ff02191690831515021790555090505050565b60008160065442611e219190613074565b10159050919050565b60006002600960006005548152602001908152602001600020600001805490501015905090565b600260009054906101000a900473ffffffffffffffffffffffffffffffffffffffff1673ffffffffffffffffffffffffffffffffffffffff163373ffffffffffffffffffffffffffffffffffffffff161480611efa5750600160009054906101000a900473ffffffffffffffffffffffffffffffffffffffff1673ffffffffffffffffffffffffffffffffffffffff163373ffffffffffffffffffffffffffffffffffffffff16145b611f39576040517f08c379a0000000000000000000000000000000000000000000000000000000008152600401611f3090612e14565b60405180910390fd5b6000600360009054906101000a900473ffffffffffffffffffffffffffffffffffffffff1690506000600960006005548152602001908152602001600020600001805480602002602001604051908101604052809291908181526020018280548015611ffa57602002820191906000526020600020905b8160009054906101000a900473ffffffffffffffffffffffffffffffffffffffff1673ffffffffffffffffffffffffffffffffffffffff1681526020019060010190808311611fb0575b5050505050905060005b8151811015612179578273ffffffffffffffffffffffffffffffffffffffff166323b872dd838381518110612062577f4e487b7100000000000000000000000000000000000000000000000000000000600052603260045260246000fd5b6020026020010151308673ffffffffffffffffffffffffffffffffffffffff1663907af6c06040518163ffffffff1660e01b815260040160206040518083038186803b1580156120b157600080fd5b505afa1580156120c5573d6000803e3d6000fd5b505050506040513d601f19601f820116820180604052508101906120e99190612a51565b60016120f5919061301a565b6040518463ffffffff1660e01b815260040161211393929190612cf9565b602060405180830381600087803b15801561212d57600080fd5b505af1158015612141573d6000803e3d6000fd5b505050506040513d601f19601f820116820180604052508101906121659190612979565b50808061217190613188565b915050612004565b505050565b60008073ffffffffffffffffffffffffffffffffffffffff1660096000600554815260200190815260200160002060010160009054906101000a900473ffffffffffffffffffffffffffffffffffffffff1673ffffffffffffffffffffffffffffffffffffffff161415905090565b600060096000600554815260200190815260200160002060010160149054906101000a900460ff16905090565b600260009054906101000a900473ffffffffffffffffffffffffffffffffffffffff1673ffffffffffffffffffffffffffffffffffffffff163373ffffffffffffffffffffffffffffffffffffffff1614806122c35750600160009054906101000a900473ffffffffffffffffffffffffffffffffffffffff1673ffffffffffffffffffffffffffffffffffffffff163373ffffffffffffffffffffffffffffffffffffffff16145b612302576040517f08c379a00000000000000000000000000000000000000000000000000000000081526004016122f990612e14565b60405180910390fd5b61230a61217e565b15612574576000600360009054906101000a900473ffffffffffffffffffffffffffffffffffffffff16905060006009600060055481526020019081526020016000206000018054806020026020016040519081016040528092919081815260200182805480156123d057602002820191906000526020600020905b8160009054906101000a900473ffffffffffffffffffffffffffffffffffffffff1673ffffffffffffffffffffffffffffffffffffffff1681526020019060010190808311612386575b50505050509050600081519050600060096000600554815260200190815260200160002060010160009054906101000a900473ffffffffffffffffffffffffffffffffffffffff16905060008473ffffffffffffffffffffffffffffffffffffffff1663907af6c06040518163ffffffff1660e01b815260040160206040518083038186803b15801561246257600080fd5b505afa158015612476573d6000803e3d6000fd5b505050506040513d601f19601f8201168201806040525081019061249a9190612a51565b836124a5919061301a565b90508473ffffffffffffffffffffffffffffffffffffffff1663a9059cbb83836040518363ffffffff1660e01b81526004016124e2929190612d60565b602060405180830381600087803b1580156124fc57600080fd5b505af1158015612510573d6000803e3d6000fd5b505050506040513d601f19601f820116820180604052508101906125349190612979565b507f994bf845d204f6a7201202025f8f9ca46641b9bab2f1ef86a6681d8f4353a2a36005546040516125669190612eb6565b60405180910390a150505050505b565b600033905090565b60008060009054906101000a900473ffffffffffffffffffffffffffffffffffffffff169050816000806101000a81548173ffffffffffffffffffffffffffffffffffffffff021916908373ffffffffffffffffffffffffffffffffffffffff1602179055508173ffffffffffffffffffffffffffffffffffffffff168173ffffffffffffffffffffffffffffffffffffffff167f8be0079c531659141344cd1fd0a4f28419497f9722a3daafe3b4186f6b6457e060405160405180910390a35050565b604051806060016040528060608152602001600073ffffffffffffffffffffffffffffffffffffffff1681526020016000151581525090565b8280548282559060005260206000209081019282156126f4579160200282015b828111156126f35782518260006101000a81548173ffffffffffffffffffffffffffffffffffffffff021916908373ffffffffffffffffffffffffffffffffffffffff1602179055509160200191906001019061269b565b5b5090506127019190612705565b5090565b5b8082111561271e576000816000905550600101612706565b5090565b600061273561273084612ef6565b612ed1565b9050808382526020820190508285602086028201111561275457600080fd5b60005b85811015612784578161276a88826127e1565b845260208401935060208301925050600181019050612757565b5050509392505050565b60006127a161279c84612f22565b612ed1565b9050828152602081018484840111156127b957600080fd5b6127c4848285613115565b509392505050565b6000813590506127db81613497565b92915050565b6000815190506127f081613497565b92915050565b600082601f83011261280757600080fd5b8151612817848260208601612722565b91505092915050565b60008151905061282f816134ae565b92915050565b60008083601f84011261284757600080fd5b8235905067ffffffffffffffff81111561286057600080fd5b60208301915083600182028301111561287857600080fd5b9250929050565b600082601f83011261289057600080fd5b81356128a084826020860161278e565b91505092915050565b6000813590506128b8816134c5565b92915050565b6000815190506128cd816134c5565b92915050565b6000602082840312156128e557600080fd5b60006128f3848285016127cc565b91505092915050565b6000806040838503121561290f57600080fd5b600061291d858286016127cc565b925050602061292e858286016128a9565b9150509250929050565b60006020828403121561294a57600080fd5b600082015167ffffffffffffffff81111561296457600080fd5b612970848285016127f6565b91505092915050565b60006020828403121561298b57600080fd5b600061299984828501612820565b91505092915050565b600080602083850312156129b557600080fd5b600083013567ffffffffffffffff8111156129cf57600080fd5b6129db85828601612835565b92509250509250929050565b6000602082840312156129f957600080fd5b600082013567ffffffffffffffff811115612a1357600080fd5b612a1f8482850161287f565b91505092915050565b600060208284031215612a3a57600080fd5b6000612a48848285016128a9565b91505092915050565b600060208284031215612a6357600080fd5b6000612a71848285016128be565b91505092915050565b6000612a868383612a92565b60208301905092915050565b612a9b816130a8565b82525050565b612aaa816130a8565b82525050565b6000612abb82612f63565b612ac58185612f91565b9350612ad083612f53565b8060005b83811015612b01578151612ae88882612a7a565b9750612af383612f84565b925050600181019050612ad4565b5085935050505092915050565b612b17816130ba565b82525050565b612b26816130ba565b82525050565b6000612b3782612f6e565b612b418185612fa2565b9350612b51818560208601613124565b612b5a816132be565b840191505092915050565b612b6e81613103565b82525050565b6000612b7f82612f79565b612b898185612fb3565b9350612b99818560208601613124565b612ba2816132be565b840191505092915050565b6000612bba602683612fb3565b9150612bc5826132cf565b604082019050919050565b6000612bdd602283612fb3565b9150612be88261331e565b604082019050919050565b6000612c00603483612fb3565b9150612c0b8261336d565b604082019050919050565b6000612c23602083612fb3565b9150612c2e826133bc565b602082019050919050565b6000612c46603c83612fb3565b9150612c51826133e5565b604082019050919050565b6000612c69602a83612fb3565b9150612c7482613434565b604082019050919050565b60006060830160008301518482036000860152612c9c8282612ab0565b9150506020830151612cb16020860182612a92565b506040830151612cc46040860182612b0e565b508091505092915050565b612cd8816130f9565b82525050565b6000602082019050612cf36000830184612aa1565b92915050565b6000606082019050612d0e6000830186612aa1565b612d1b6020830185612aa1565b612d286040830184612ccf565b949350505050565b6000604082019050612d456000830185612aa1565b8181036020830152612d578184612b74565b90509392505050565b6000604082019050612d756000830185612aa1565b612d826020830184612ccf565b9392505050565b6000604082019050612d9e6000830185612b1d565b8181036020830152612db08184612b2c565b90509392505050565b6000602082019050612dce6000830184612b65565b92915050565b60006020820190508181036000830152612ded81612bad565b9050919050565b60006020820190508181036000830152612e0d81612bd0565b9050919050565b60006020820190508181036000830152612e2d81612bf3565b9050919050565b60006020820190508181036000830152612e4d81612c16565b9050919050565b60006020820190508181036000830152612e6d81612c39565b9050919050565b60006020820190508181036000830152612e8d81612c5c565b9050919050565b60006020820190508181036000830152612eae8184612c7f565b905092915050565b6000602082019050612ecb6000830184612ccf565b92915050565b6000612edb612eec565b9050612ee78282613157565b919050565b6000604051905090565b600067ffffffffffffffff821115612f1157612f1061328f565b5b602082029050602081019050919050565b600067ffffffffffffffff821115612f3d57612f3c61328f565b5b612f46826132be565b9050602081019050919050565b6000819050602082019050919050565b600081519050919050565b600081519050919050565b600081519050919050565b6000602082019050919050565b600082825260208201905092915050565b600082825260208201905092915050565b600082825260208201905092915050565b6000612fcf826130f9565b9150612fda836130f9565b9250827fffffffffffffffffffffffffffffffffffffffffffffffffffffffffffffffff0382111561300f5761300e613202565b5b828201905092915050565b6000613025826130f9565b9150613030836130f9565b9250817fffffffffffffffffffffffffffffffffffffffffffffffffffffffffffffffff048311821515161561306957613068613202565b5b828202905092915050565b600061307f826130f9565b915061308a836130f9565b92508282101561309d5761309c613202565b5b828203905092915050565b60006130b3826130d9565b9050919050565b60008115159050919050565b60008190506130d482613483565b919050565b600073ffffffffffffffffffffffffffffffffffffffff82169050919050565b6000819050919050565b600061310e826130c6565b9050919050565b82818337600083830152505050565b60005b83811015613142578082015181840152602081019050613127565b83811115613151576000848401525b50505050565b613160826132be565b810181811067ffffffffffffffff8211171561317f5761317e61328f565b5b80604052505050565b6000613193826130f9565b91507fffffffffffffffffffffffffffffffffffffffffffffffffffffffffffffffff8214156131c6576131c5613202565b5b600182019050919050565b60006131dc826130f9565b91506131e7836130f9565b9250826131f7576131f6613231565b5b828206905092915050565b7f4e487b7100000000000000000000000000000000000000000000000000000000600052601160045260246000fd5b7f4e487b7100000000000000000000000000000000000000000000000000000000600052601260045260246000fd5b7f4e487b7100000000000000000000000000000000000000000000000000000000600052602160045260246000fd5b7f4e487b7100000000000000000000000000000000000000000000000000000000600052604160045260246000fd5b6000601f19601f8301169050919050565b7f4f776e61626c653a206e6577206f776e657220697320746865207a65726f206160008201527f6464726573730000000000000000000000000000000000000000000000000000602082015250565b7f50324547616d653a204d757374206265204e4654206f776e657220746f20706c60008201527f6179000000000000000000000000000000000000000000000000000000000000602082015250565b7f50324547616d653a2041646d696e206f72204b65657065722063616e2070657260008201527f666f726d2074686973206f7065726174696f6e2e000000000000000000000000602082015250565b7f4f776e61626c653a2063616c6c6572206973206e6f7420746865206f776e6572600082015250565b7f50324547616d653a20546869732067616d652073657373696f6e20697320656960008201527f746865722072756e6e696e67206f72206861732066696e697368656400000000602082015250565b7f50324547616d653a2041646d696e2063616e20706572666f726d20746869732060008201527f6f7065726174696f6e2e00000000000000000000000000000000000000000000602082015250565b6004811061349457613493613260565b5b50565b6134a0816130a8565b81146134ab57600080fd5b50565b6134b7816130ba565b81146134c257600080fd5b50565b6134ce816130f9565b81146134d957600080fd5b5056fea26469706673582212205129a48ac9add40d2a852a5b12f791bc15923b2fa2989abc48ea8de77f172bed64736f6c63430008040033",
  "linkReferences": {},
  "deployedLinkReferences": {}
}